:020000040800F2
:1000000000A00020B5360008C9320008CB32000835
:10001000CD320008CF320008D132000800000000C5
:10002000000000000000000000000000D3320008C3
:10003000D532000800000000D7320008D93200088D
:1000400005370008053700080537000805370008A0
:100050000537000805370008053700080537000890
:10006000053700080537000805370008E1320008A9
:100070000537000805370008053700080537000870
:100080000537000805370008053700080537000860
:10009000E5240008F52400080537000805370008A6
:1000A00005370008F1320008053700080537000859
:1000B0000537000805370008053700080537000830
:1000C0000537000805370008053700080537000820
:1000D0000537000805370008053700081133000808
:1000E0000537000805370008053700080537000800
:1000F00005370008053700080537000805370008F0
:1001000000000000000000000000000005370008AB
:1001100005370008053700080537000805370008CF
:1001200005370008013300080537000805370008C7
:100130000537000805370008000000000000000037
:1001400005370008053700080537000800000000E3
:10015000000000000000000000000000000000009F
:100160000000000000000000053700080537000807
:10017000053700080000000000000000000000003B
:08018000000000000537000833
:1001C00081F0004102E000BF83F0004330B54FEA08
:1001D00041044FEA430594EA050F08BF90EA020F75
:1001E0001FBF54EA000C55EA020C7FEA645C7FEA08
:1001F000655C00F0E2804FEA5454D4EB5555B8BF2B
:100200006D420CDD2C4480EA020281EA030382EA9B
:10021000000083EA010180EA020281EA0303362D2D
:1002200088BF30BD11F0004F4FEA01314FF4801C00
:100230004CEA113102D0404261EB410113F0004F12
:100240004FEA03334CEA133302D0524263EB4303C9
:1002500094EA050F00F0A780A4F10104D5F1200E67
:100260000DDB02FA0EFC22FA05F2801841F10001C2
:1002700003FA0EF2801843FA05F359410EE0A5F196
:1002800020050EF1200E012A03FA0EFC28BF4CF0C7
:10029000020C43FA05F3C01851EBE37101F000457D
:1002A00007D54FF0000EDCF1000C7EEB00006EEB8A
:1002B0000101B1F5801F1BD3B1F5001F0CD3490814
:1002C0005FEA30004FEA3C0C04F101044FEA44526B
:1002D00012F5800F80F09A80BCF1004F08BF5FEAF2
:1002E000500C50F1000041EB045141EA050130BDD2
:1002F0005FEA4C0C404141EB0101013C28BFB1F5E4
:10030000801FE9D291F0000F04BF01460020B1FA2E
:1003100081F308BF2033A3F10B03B3F120020CDA01
:100320000C3208DD02F1140CC2F10C0201FA0CF0DF
:1003300021FA02F10CE002F11402D8BFC2F1200C44
:1003400001FA02F120FA0CFCDCBF41EA0C019040FA
:10035000E41AA2BF01EB0451294330BD6FEA040443
:100360001F3C1CDA0C340EDC04F11404C4F120022E
:1003700020FA04F001FA02F340EA030021FA04F340
:1003800045EA030130BDC4F10C04C4F1200220FA97
:1003900002F001FA04F340EA0300294630BD21FAD5
:1003A00004F0294630BD94F0000F83F4801306BF9B
:1003B00081F480110134013D4EE77FEA645C18BF8F
:1003C0007FEA655C29D094EA050F08BF90EA020F26
:1003D00005D054EA000C04BF1946104630BD91EA1E
:1003E000030F1EBF0021002030BD5FEA545C05D121
:1003F0004000494128BF41F0004130BD14F5800460
:100400003CBF01F5801130BD01F0004545F0FE41D3
:1004100041F470014FF0000030BD7FEA645C1ABF08
:10042000194610467FEA655C1CBF0B46024650EA3F
:10043000013406BF52EA033591EA030F41F400216B
:1004400030BD00BF90F0000F04BF0021704730B5F1
:100450004FF4806404F132044FF000054FF00001C6
:1004600050E700BF90F0000F04BF0021704730B587
:100470004FF4806404F1320410F0004548BF40425C
:100480004FF000013EE700BF42004FEAE2014FEAB1
:1004900031014FEA02701FBF12F07F4393F07F4F8C
:1004A00081F06051704732F07F4208BF704793F08F
:1004B0007F4F04BF41F40021704730B54FF46074A2
:1004C00001F0004521F000411CE700BF50EA0102A5
:1004D00008BF704730B54FF000050AE050EA01024E
:1004E00008BF704730B511F0004502D5404261EBBE
:1004F00041014FF4806404F132045FEA915C3FF4FF
:10050000D8AE4FF003025FEADC0C18BF03325FEA9B
:10051000DC0C18BF033202EBDC02C2F1200300FA4C
:1005200003FC20FA02F001FA03FE40EA0E0021FA71
:1005300002F11444BDE600BF00000000000000000E
:1005400002780B78012A28BF9A4240F0D8806DE9E2
:10055000044540EA0104CDE902676FF0000C4FEA60
:1005600044721AB380EA010414F0070F6BD100F053
:10057000070420F0070004F0030521F007014FEA0B
:10058000C505F0E8042314F0040FF1E804670CFA41
:1005900005F462EA040266EA04060BD063EA040387
:1005A000624667EA0407664604E000BFF0E80423F9
:1005B000F1E8046782FA4CF582EA0604A4FA8CF4A6
:1005C0006CBB83FA4CF583EA0705A5FA8CF595B95F
:1005D00050E9022351E9026782FA4CF582EA0604E7
:1005E000A4FA8CF483FA4CF583EA0705A5FA8CF596
:1005F0002543DBD09CB92DBAB5FA85F424F0070465
:1006000027FA04F1DDE9026723FA04F303F0FF009F
:1006100001F0FF01FDE80445A0EB0100704724BA9A
:10062000B4FA84F424F0070426FA04F1DDE9026741
:1006300022FA04F202F0FF0001F0FF01FDE8044598
:10064000A0EB0100704714F0030F3CD110F003043D
:1006500028D150F8082B51F8083B82FA4CF582EA71
:100660000305A5FA8CF55DB950F8042C51F8043C4B
:1006700082FA4CF582EA0305A5FA8CF5002DE8D044
:100680002DBAB5FA85F424F0070423FA04F122FA0E
:1006900004F202F0FF0001F0FF01FDE80445A0EBC9
:1006A000010070474FEAC40420F0030050F8082B03
:1006B00021F0030151F8083B0CFA04F462EA040249
:1006C00063EA0403C9E710F003041DD0A1EB0401A1
:1006D00020F00300E40750F8042B06D012D28B78E8
:1006E0005FFAA2F4E41A06D12BB1CB785FFAB2F428
:1006F000E41A00D133B920465DF8104B7047A2EBE5
:100700000300704701F1040150F8042BCC0721F0DD
:10071000030151F8043B48D824D222F07F4482FAE6
:100720004CF594EA1325A5FA8CF50AD165B951F870
:10073000043B84EA0204B4EB036F0ED150F8042B9F
:10074000EBE74FEA132355E035F07F454DD10878AC
:10075000FDE80445C0F1000070474FEA126203F063
:10076000FF0347E002EA1C4482FA4CF594EA134581
:10077000A5FA8CF50AD165B951F8043B84EA020464
:10078000B4EB034F0CD150F8042BEBE74FEA1343C3
:1007900030E015EA1C4528D10B884FEA124229E0C7
:1007A0004FEA124203EA1C4324E002F0FF0482FAFB
:1007B0004CF594EA1365A5FA8CF50AD165B951F8A0
:1007C000043B84EA0204B4EB032F09D150F8042B54
:1007D000EBE74FEA13630DE015F0FF0F05D10B684F
:1007E0004FEA122223F07F4304E04FF00000FDE8BF
:1007F0000445704712BA1BBA82FA4CF482EA030429
:10080000A4FA8CF5B5FA85F402FA04F203FA04F3BB
:100810004FEA1260FDE80445A0EB1360704700BF8B
:1008200000000000000000000000000000000000C8
:1008300000000000000000000000000000000000B8
:1008400030B490F800F020F007016FF0000C10F0C9
:10085000070491F820F040F048804FF000046FF05A
:100860000700D1E9002391F840F000F1080082FA76
:100870004CF2A4FA8CF283FA4CF3A2FA8CF34BBB41
:10088000D1E9022382FA4CF200F10800A4FA8CF2BA
:1008900083FA4CF3A2FA8CF3E3B9D1E9042382FA88
:1008A0004CF200F10800A4FA8CF283FA4CF3A2FA9D
:1008B0008CF37BB9D1E9062301F1200182FA4CF2D5
:1008C00000F10800A4FA8CF283FA4CF3A2FA8CF33C
:1008D000002BC6D0002A04BF04301A4612BAB2FA5E
:1008E00082F200EBD20030BC7047D1E9002304F063
:1008F0000305C4F100004FEAC50514F0040F91F898
:1009000040F00CFA05F562EA05021CBF63EA050334
:1009100062464FF00004AAE700000000000000005B
:1009200001F0FF01102A2BDB10F0070F08D010F8A0
:10093000013B013A8B422DD010F0070F42B3F6D1A4
:10094000F0B441EA012141EA014122F007047FF0BD
:1009500000070023F0E80256083C85EA010586EA14
:10096000010685FA47F5A3FA87F586FA47F6A5FA50
:1009700087F68EB9EED1F0BC01F0FF0102F007025C
:1009800032B110F8013B013A83EA010313B1F8D107
:100990000020704701387047002D06BF35460338E8
:1009A000073815F0010F07D1013015F4807F02BF21
:1009B000013015F4C03F0130F0BC0138704700BF72
:1009C000844641EA000313F003036DD1403A41D35A
:1009D00051F8043B40F8043B51F8043B40F8043B19
:1009E00051F8043B40F8043B51F8043B40F8043B09
:1009F00051F8043B40F8043B51F8043B40F8043BF9
:100A000051F8043B40F8043B51F8043B40F8043BE8
:100A100051F8043B40F8043B51F8043B40F8043BD8
:100A200051F8043B40F8043B51F8043B40F8043BC8
:100A300051F8043B40F8043B51F8043B40F8043BB8
:100A400051F8043B40F8043B51F8043B40F8043BA8
:100A5000403ABDD2303211D351F8043B40F8043B48
:100A600051F8043B40F8043B51F8043B40F8043B88
:100A700051F8043B40F8043B103AEDD20C3205D358
:100A800051F8043B40F8043B043AF9D2043208D050
:100A9000D2071CBF11F8013B00F8013B01D30B88C2
:100AA00003806046704700BF082A13D38B078DD0A0
:100AB00010F003038AD0C3F10403D21ADB071CBF72
:100AC00011F8013B00F8013B80D331F8023B20F8DC
:100AD000023B7BE7043AD9D3013A11F8013B00F815
:100AE000013BF9D20B7803704B7843708B7883709D
:100AF0006046704770B54FF0FF0C4CF4E06C1CEA98
:100B000011541DBF1CEA135594EA0C0F95EA0C0F03
:100B100000F0DEF82C4481EA030621EA4C5123EA76
:100B20004C5350EA013518BF52EA033541F48011A5
:100B300043F4801338D0A0FB02CE4FF00005E1FB58
:100B400002E506F00042E0FB03E54FF00006E1FBA2
:100B500003569CF0000F18BF4EF0010EA4F1FF04E5
:100B6000B6F5007F64F5407404D25FEA4E0E6D4125
:100B700046EB060642EAC62141EA55514FEAC52036
:100B800040EA5E504FEACE2EB4F1FD0C88BFBCF5B2
:100B9000E06F1ED8BEF1004F08BF5FEA500E50F163
:100BA000000041EB045170BD06F0004646EA010129
:100BB00040EA020081EA0301B4EB5C04C2BFD4EB5B
:100BC0000C0541EA045170BD41F480114FF0000E54
:100BD000013C00F3AB8014F1360FDEBF002001F0C2
:100BE000004170BDC4F10004203C35DA0C341BDC3C
:100BF00004F11404C4F1200500FA05F320FA04F00E
:100C000001FA05F240EA020001F0004221F0004141
:100C100010EBD37021FA04F642EB06015EEA430EB4
:100C200008BF20EAD37070BDC4F10C04C4F12005E4
:100C300000FA04F320FA05F001FA04F240EA020097
:100C400001F0004110EBD37041F100015EEA430E68
:100C500008BF20EAD37070BDC4F1200500FA05F288
:100C60004EEA020E20FA04F301FA05F243EA020307
:100C700021FA04F001F0004121FA04F220EA020016
:100C800000EBD3705EEA430E08BF20EAD37070BD5C
:100C900094F0000F0FD101F00046400041EB01013C
:100CA00011F4801F08BF013CF7D041EA060195F01E
:100CB000000F18BF704703F00046520043EB0303D8
:100CC00013F4801F08BF013DF7D043EA06037047C5
:100CD00094EA0C0F0CEA135518BF95EA0C0F0CD0D0
:100CE00050EA410618BF52EA4306D1D181EA030116
:100CF00001F000414FF0000070BD50EA410606BF10
:100D00001046194652EA430619D094EA0C0F02D154
:100D100050EA013613D195EA0C0F05D152EA033699
:100D20001CBF104619460AD181EA030101F00041B7
:100D300041F0FE4141F470014FF0000070BD41F000
:100D4000FE4141F4780170BD70B54FF0FF0C4CF4DA
:100D5000E06C1CEA11541DBF1CEA135594EA0C0FF9
:100D600095EA0C0F00F0A7F8A4EB050481EA030E46
:100D700052EA03354FEA013100F088804FEA03332D
:100D80004FF0805545EA131343EA12634FEA0222FB
:100D900045EA111545EA10654FEA00260EF00041BC
:100DA0009D4208BF964244F1FD0404F5407402D20E
:100DB0005B084FEA3202B61A65EB03055B084FEA9F
:100DC00032024FF480104FF4002CB6EB020E75EB9C
:100DD000030E22BFB61A754640EA0C005B084FEAC4
:100DE0003202B6EB020E75EB030E22BFB61A754641
:100DF00040EA5C005B084FEA3202B6EB020E75EB8C
:100E0000030E22BFB61A754640EA9C005B084FEA03
:100E10003202B6EB020E75EB030E22BFB61A754610
:100E200040EADC0055EA060E18D04FEA051545EAFF
:100E300016754FEA06164FEAC30343EA52734FEAA8
:100E4000C2025FEA1C1CC0D111F4801F0BD141EA21
:100E500000014FF000004FF0004CB6E711F4801F86
:100E600004BF01430020B4F1FD0C88BFBCF5E06F66
:100E70003FF6AFAEB5EB030C04BFB6EB020C5FEA76
:100E8000500C50F1000041EB045170BD0EF0004ECB
:100E90004EEA113114EB5C04C2BFD4EB0C0541EAFD
:100EA000045170BD41F480114FF0000E013C90E6FA
:100EB00045EA060E8DE60CEA135594EA0C0F08BFBE
:100EC00095EA0C0F3FF43BAF94EA0C0F0AD150EABD
:100ED00001347FF434AF95EA0C0F7FF425AF104650
:100EE00019462CE795EA0C0F06D152EA03353FF478
:100EF000FDAE1046194622E750EA410618BF52EAF5
:100F000043067FF4C5AE50EA41047FF40DAF52EAC8
:100F100043057FF4EBAE12E74FF0FF3C06E000BF65
:100F20004FF0010C02E000BF4FF0010C4DF804CD72
:100F30004FEA410C7FEA6C5C4FEA430C18BF7FEA32
:100F40006C5C1BD001B050EA410C0CBF52EA430C60
:100F500091EA030F02BF90EA020F0020704710F1E0
:100F6000000F91EA030F58BF994208BF90422CBF6F
:100F7000D8176FEAE37040F0010070474FEA410C68
:100F80007FEA6C5C02D150EA013C07D14FEA430C86
:100F90007FEA6C5CD6D152EA033CD3D05DF8040BF7
:100FA000704700BF8446104662468C461946634629
:100FB00000E000BF01B5FFF7B7FF002848BF10F100
:100FC000000F01BD4DF808EDFFF7F4FF0CBF012045
:100FD00000205DF808FB00BF4DF808EDFFF7EAFFC1
:100FE00034BF012000205DF808FB00BF4DF808ED7C
:100FF000FFF7E0FF94BF012000205DF808FB00BF71
:101000004DF808EDFFF7CEFF94BF012000205DF8FA
:1010100008FB00BF4DF808EDFFF7C4FF34BF012007
:1010200000205DF808FB00BF4FEA410C7FEA6C5CD2
:1010300002D150EA013C0AD14FEA430C7FEA6C5CD2
:1010400002D152EA033C02D14FF0000070474FF04A
:10105000010070474FEA410212F5001215D211D576
:101060006FF47873B3EB625212D94FEAC12343F0A5
:10107000004343EA505311F0004F23FA02F018BF27
:10108000404270474FF00000704750EA013005D1F0
:1010900011F0004008BF6FF0004070474FF00000B3
:1010A000704700BF4A0011D212F5001211D20DD5BF
:1010B0006FF47873B3EB62520ED44FEAC12343F05E
:1010C000004343EA505323FA02F070474FF0000008
:1010D000704750EA013002D14FF0FF3070474FF0B7
:1010E000000070474FEA4102B2F1E04324BFB3F57C
:1010F000001CDCF1FE5C0DD901F0004C4FEAC0028F
:101100004CEA5070B2F1004F40EB830008BF20F072
:101110000100704711F0804F21D113F13872BCBF2C
:1011200001F00040704741F480114FEA5252C2F181
:101130001802C2F1200C10FA0CF320FA02F018BFCA
:1011400040F001004FEAC1234FEAD32303FA0CFC1D
:1011500040EA0C0023FA02F34FEA4303CCE77FEAAC
:10116000625307D150EA01331EBF4FF0FE4040F4F6
:101170004000704701F0004040F0FE4040F40000A5
:10118000704700BF53B94AB9002908BF00281CBFE7
:101190004FF0FF314FF0FF3000F00CB8ADF1080C0C
:1011A0006DE904CE12F000FFDDF804E0DDE9022372
:1011B00004B07047704700BF10B5054C237833B9B1
:1011C000044B13B10448AFF300800123237010BD1A
:1011D000D4080020000000000445010808B5034BB6
:1011E0001BB103490348AFF3008008BD00000000B5
:1011F000D80800200445010870EEC00A90ED047A7A
:10120000D0ED017A67EEA07AD0ED026A67EEA67A99
:1012100077EE277AC0ED047A90ED037AF4EEC77A80
:10122000F1EE10FA0ADD80ED047AD0ED007A67EE77
:10123000A07A90ED040A37EE800A7047B1EE477A43
:10124000F4EEC77AF1EE10FAEFD580ED047AECE710
:1012500020EE200AF7EE007A77EEE00AD0ED007A71
:1012600060EEA70A30EE200A80ED000A7047000009
:1012700008B52DED028B07EE900AF8EE677A9FED28
:10128000137A67EE877ADFED126A87EEA67AF1EEBF
:10129000046AC6EE877AB7EE008A77EEC87A67EE00
:1012A000A07A87EE800A12F0DDFF9FED0A7AC0EE89
:1012B000077A9FED097A77EE877A88EE270ADFEDC5
:1012C000077A30EE670ABDEC028B08BD333353401A
:1012D00000F07F4500C05A4562EB5B3B00808843CD
:1012E00038B52DED028B0446334D05222946806921
:1012F00002F0E0FD0A21A06902F02CFDDFED2F8A4B
:101300009FED2F8AF0EE680AB0EE480A2888FFF7B2
:10131000AFFFDFED2C0A04F11000FFF799FFF0EEAC
:10132000680AB0EE480A2888FFF7A2FF84ED040A95
:101330006B8800EE103AB8EE400A9FED237AAB8836
:1013400007EE903AF8EE677AC7EE878A9FED1F8A1C
:10135000F0EE480A80EE070A201DFFF779FFF0EE55
:10136000480AB0EE680A04F10800FFF771FFB5F90A
:101370000630A3F5F07307EE903AF8EEE77A9FEDAA
:10138000147A67EE877A134BC3ED007A93ED000A67
:10139000DFED110A2046FFF75BFF2B8907EE903A3D
:1013A000F8EE677A9FED0D7A67EE877AC4ED037ADF
:1013B000BDEC028B38BD00BFF408002000007A4469
:1013C00000401C466F12833A00F07F450AD7233C49
:1013D0002549123EF00800200AD7A33B473C113CA8
:1013E00010B50446C06902F0F5FB0A21E06902F07D
:1013F000B1FCE06902F020FEDFED060A9FED060A6F
:1014000080B2FFF735FFDFED050A04F11400FFF7A6
:101410001FFF10BD00002A4400409C456F12833A14
:10142000F0B52DED028B8FB004468D49FFF788F89B
:1014300058B38C492046FFF783F868B38A492046A1
:10144000FFF77EF800284BD088492046FFF778F850
:1014500000284FD086492046FFF772F800286CD14B
:10146000844B9B6CD3F88860D3F88400FFF70CF8AA
:1014700004460D463046FFF707F8CDE90001224645
:101480002B467D4805F056FF02E07C4805F0C4FF7E
:101490000FB0BDEC028BF0BD764B986C00F012FDE6
:1014A00010EE100A10EE904A11EE105A8DED050A5A
:1014B000CDED060A8DED071AFEF7E6FF06460F464C
:1014C0002846FEF7E1FFCDE902012046FEF7DCFFEA
:1014D000CDE9000132463B46694805F02BFFD7E7CE
:1014E000644B9B6C198D5A8D92B289B2654805F098
:1014F00021FFCDE75F4B986C00F0E4FC8DED0B0A0B
:10150000CDED0C0A8DED0D1A01F0ACFF10EE100AB6
:1015100010EE904A8DED050ACDED060AFEF7B4FFF8
:1015200006460F462046FEF7AFFFCDE900013246E2
:101530003B46554805F0FEFEAAE709AB0AAA534907
:10154000204605F071FF022823D009AB0AAA5049B2
:10155000204605F069FF022848D009AB00930AAB8A
:101560000DF123024B49204605F05EFF03284ED0C3
:1015700049492046FEF7E4FF00286DD13D4B9B6CA6
:101580009869FEF781FF02460B46444805F0D2FEFB
:101590007EE79DED090A02F06DF88DED050ACDEDAF
:1015A000060A9DED0A8A20EE080A8DED050A28EE4E
:1015B000208A8DED068A10EE100AFEF765FF0446BC
:1015C0000D4618EE100AFEF75FFFCDE90001224636
:1015D0002B46334805F0AEFE9DED050ADDED060A0B
:1015E0000021244B986C00F0F3FD51E70A9B059312
:1015F000099B06932B4805F00FFF9DED050ADDEDD5
:10160000060A01211B4B986C00F0E2FD40E79DF8B3
:101610002310612905D064290FD0234805F08AFEE4
:1016200036E7144B9B6C0A99D965099A1A661967B3
:101630005A671C4805F0F0FE2AE70E4B9A6C0A998F
:101640005163986C099A8263986C81649B6CDA642C
:10165000144805F0E1FE1BE7144805F0DDFE17E72E
:1016600020450108304501084C4501086445010842
:101670008045010800090020884501082845010827
:1016800038450108584501086C4501089C4501088A
:10169000B4450108C4450108E8450108F4450108BE
:1016A000A8450108C0450108D0450108FC450108CE
:1016B00008B50B4A92F844300133DBB282F844306B
:1016C0003F2B03D91346002283F84420044B93F8A0
:1016D0004410181D01220144186805F013FD08BDCF
:1016E0000009002008B5054B1860002283F844204B
:1016F00099640122191D05F005FD08BD00090020AF
:1017000038B5144C94F84430211D01221944206846
:1017100005F0F8FC94F8443023B1013B23441B79D5
:101720000A2B00D038BD206805F0D4F994F8443075
:10173000013B234400221A7184F84420251D2846C9
:10174000FFF76EFE94F8441001222944206805F04A
:10175000D9FCE7E70009002008B10020704701200C
:101760007047036840F2893C634515D040F28A3CDB
:1017700063451ED040F2773C634502D10369082BD4
:1017800000D0704708684B68C2F83700C2F83B3099
:10179000012382F8343070470369082BF1D10868BF
:1017A0004B68C2F83F00C2F84330012382F835305D
:1017B00070470369082BE4D108684B68C2F84700FA
:1017C000C2F84B30012382F83630DAE7F0B58BB03F
:1017D00006680024049447F22013009301940294B5
:1017E000039401250795089505946946304602F053
:1017F00051FF049446F6E06300930194029403942D
:101800000795089505956946304602F043FF049414
:1018100047F24013009301940294039407950895AE
:10182000022405946946304602F034FF304602F047
:10183000B4FF2146304603F008F90BB0F0BD0302B7
:1018400043EA102080B270472DE9F0478EB0066859
:101850000BAA00240B94546005AD059406940794DC
:10186000089409940A9440F2852305934FF00809DF
:10187000CDF82490B6238DF82E300DAF3B46294687
:10188000304602F0B8FF0DF10C08039404944FF0B9
:101890000A0A8DF80EA040F67460FFF7D0FFADF88D
:1018A0000C0037238DF80F308DF812A040F28623FC
:1018B0000593CDF824903B4642462946304602F037
:1018C0009AFF40F2FF23059301238DF80430E823AB
:1018D0008DF8053003238DF8063050238DF807303E
:1018E0000F238DF8083078238DF809308DF80A40E1
:1018F0008DF80B403B4601AA2946304602F07BFF9B
:101900000EB0BDE8F0870000002872D038B504465C
:1019100090F83430002B6ED090F83630002B6CD01D
:1019200090F83530002B6AD0002580F8345080F8CC
:10193000365080F83550012380F82A3090F83E3038
:10194000C3F3400380F82B3080F82D3090F84430FA
:10195000C3F3400280F82E20C3F3C00280F82C208D
:10196000C3F3C01280F83220C3F3001280F82F2096
:10197000C3F380130374B0F83700FFF760FF07EE7E
:10198000900AF8EE677ADFED1F6A87EEA67A84ED9B
:10199000027AB4F8393007EE903AF8EE677AB2EE90
:1019A000047AC7EE876AC4ED036A94F83F30238453
:1019B00094F8463007EE903AF8EE677A67EE877A49
:1019C000C4ED097A94F83B30283BA38294F83C306C
:1019D000283BE38294F83D30283B238394F842303F
:1019E000638394F84330638394F84A30A37728469E
:1019F00002E001207047002038BD0020FCE70020F5
:101A0000FAE700BF0000C84200230AE09A1D00EB7D
:101A100082020021116003F1080200EB8202516092
:101A20000133022BF2DD7047012308E09A1D00EB21
:101A300082021168DA1D00EB82021160013B002B6B
:101A4000F4DA80ED060A00239FED1C0A0EE09A1DD1
:101A500000EB8202D2ED007A9A1C00EB820292ED3A
:101A6000017A67EE877A30EE270A0133022BEEDD2A
:101A700000230EE003F1080200EB8202D2ED017AAE
:101A8000013300EB830292ED007A67EE877A30EE45
:101A9000670A012BEEDD01230AE003F1080200EBE7
:101AA0008202516803F1090200EB82025160013B9E
:101AB000002BF2DA80ED090A704700BF0000000039
:101AC000194A136801331360102B00DC704710B5FE
:101AD0000446134600221A6090ED210A012001F00D
:101AE0001FFC94ED220A022001F01AFC94ED060A74
:101AF000032001F015FC94ED2B0A042001F010FCEA
:101B000094ED2C0A052001F00BFC94ED070ADFEDA3
:101B1000077A80EE270A062001F002FC94ED0C0AF9
:101B2000072001F0FDFB10BD540900200000C84251
:101B3000002343648365C366C0F8803070470000AB
:101B40000368002B00F0AB8070B592B00446436888
:101B5000002B00F0A6808368002B00F0A480C368EF
:101B6000002B00F0A28060230B9300250D950F95AC
:101B70000E95119510950BAE2A463146006904F07A
:101B8000B0FC04223146206904F0ABFC0822314647
:101B9000206904F0A6FC08A908954D608D604FF4FB
:101BA000E0030993206904F0D9FE002871D101A94E
:101BB000002301934B608B60CB600B614B618B61A9
:101BC00040F2E24302930C22206904F04DFC00280D
:101BD00062D1022204F12801606A02F06BF9344BF1
:101BE000C4F8A43004F1B40630220021304605F0D8
:101BF00091FC4FF07E55C4F8B4502E4BC4F8B83069
:101C00002D4BC4F8BC302D4BC4F8C0302C4AC4F85E
:101C1000C420C4F8C83004F1E40CB646BEE80F0096
:101C2000ACE80F00BEE80F00ACE80F009EE80F0024
:101C30008CE80F003046FFF7E7FE04F1E400FFF701
:101C4000E3FE20496163204BA363204A92ED007AB2
:101C5000B8EE477ADFED1E6AC6EE877AC4ED0F7ADA
:101C6000002262642364A164E364C4ED147AA26573
:101C70006365E2652566C4ED197AE266A3662267AC
:101C80006567C4ED1E7AC4F88020E367002012B0B7
:101C900070BD00F065FC8AE700F062FC99E7012066
:101CA00070470120F3E70120F1E70120EFE700BFD3
:101CB0000AD7233CE46CE5BF16DF4F3FA3A9A03B46
:101CC000A3A9203C9A99993E0000204114000020CD
:101CD00000401C45836813F0800FFBD14FF6FF7363
:101CE0008381836813F0010FFBD0808980B2704735
:101CF00010B50446002202214FF0904003F086FA0E
:101D0000012202214FF0904003F080FA01220421C9
:101D10004FF0904003F07AFA012211464FF09040C4
:101D200003F074FA002201214FF0904003F06EFAA4
:101D300023681868FFF7CEFFC0F30F1307EE903A41
:101D4000F8EE677A9FED1E7A67EE877A77EEA77ACC
:101D50009FED1C7A67EE877A1B4B93ED007A77EE46
:101D6000877AC4ED017A002204214FF0904003F0FD
:101D70004DFA012211464FF0904003F047FA00223D
:101D800001214FF0904003F041FA23681868FFF7F3
:101D9000A1FF40F30B13C3EBC30307EE903AF8EE39
:101DA000E77AC4ED027A012211464FF0904003F029
:101DB0002DFA012202214FF0904003F027FA10BDC6
:101DC00000008039DB0F49400800002010B5074CA7
:101DD00001224021204603F019FA012001F0DEFC27
:101DE00000224021204603F011FA10BD00100048E7
:101DF000F6EE007A20EE270A30EE270A9FED117AE0
:101E000020EE070A03691B68BCEEC00A83ED0D0AC9
:101E100060EEA70A70EEA70A60EE870A03691B68E6
:101E2000FCEEE00AC3ED0E0A21EE271A31EE271A66
:101E300021EE071A03691B68BCEEC11A83ED0F1A65
:101E4000704700BF00401C4538B590F88C3073BB1C
:101E500005461B4B00241C605C60012001F09EFCC9
:101E60000EE02A8D164B196811FA82F21A606A8DFB
:101E7000596811FA82F25A60012001F08FFC013496
:101E8000FF2CEEDD0E490B681B0A0B604A68120A34
:101E90004A60A3F2DC51B1F57A7F0BD8A2F2DC5193
:101EA000B1F57A7F09D8AB85EA85002038BD4FF0BF
:101EB000FF30FBE74FF0FF30F8E74FF0FF30F5E77A
:101EC0004C0900208AB0438D9BB2C28D9B1A07EE4D
:101ED000103AB8EEC77ADFED136A27EE267A8DED59
:101EE000067A038D9BB2828D9B1A07EE903AF8EE2C
:101EF000E77A67EEA67ACDED057AF1EE677A77EEAE
:101F0000C77ACDED047A04AB93E807000AAB03E986
:101F100007009DED070ADDED080A9DED091A0AB0DC
:101F2000704700BF3333933F30B52DED028B89B03E
:101F3000044601224FF48061804803F067F904F100
:101F40001400FFF7D5FE94ED060A01F093FB8DED2A
:101F5000060ACDED070A2046FFF7B4FF784B83ED64
:101F6000000AC3ED010A83ED021A93ED000AD3EDD6
:101F7000010A93ED021A01F075FA724B83ED000A23
:101F8000C3ED010A93ED000AD3ED010A9DED061A97
:101F9000DDED071A01F0BEFA6B4D85ED000AC5EDC7
:101FA000010A95ED000A04F1B400FFF73DFD84ED50
:101FB000210A95ED010A04F1E400FFF735FD84EDF7
:101FC000220AD4ED240A614B93ED007A20EE877A41
:101FD000D3ED006AF7EE007A77EEE66A94ED266AB2
:101FE00066EE866A37EE267A84ED267AD4ED256A87
:101FF00093ED006A66EE866A93ED006A77EEC67A24
:1020000094ED276A67EE867A76EEA77AC4ED277A92
:1020100094F8A030012B0ED0002B5AD02046FFF7A9
:102020004FFD00224FF48061444803F0EFF809B0FF
:10203000BDEC028B30BDF0EE470A94ED210A04F1AD
:102040003400FFF7D9F8B0EE408AD4ED270A94EDBA
:10205000220A04F14800FFF7CFF8D4ED077A3C4B91
:1020600093ED007A67EE877A70EE277A84ED2B8AFB
:10207000C4ED2C7A94ED0C7A88EE070A8DED030AF4
:10208000C7EE870ACDED040AB7EE001A01F0B2F9E7
:102090008DED030ACDED040A9DED061ADDED071A5C
:1020A00001F05DFA8DED030ACDED040A01F006FAA8
:1020B000284B83ED000AC3ED010A83ED021A93ED6C
:1020C000000AD3ED010A93ED021A2046FFF790FEB5
:1020D000A4E71C4D95ED000A04F15C00FFF78CF8B5
:1020E000B0EE408A95ED010AD4ED250A04F17000A6
:1020F000FFF782F8F0EE407A84ED2B8A84ED2C0A0B
:1021000094ED0C7A88EE070A8DED010AC7EE870A76
:10211000CDED020AB7EE001A01F06CF98DED010A5F
:10212000CDED020A01F0CAF98DED030ACDED040AE6
:102130008DED051A2046FFF75BFE6FE700040048AF
:10214000740900206C0900206409002004000020AC
:10215000000000205809002038B504460D4609B398
:1021600090F88C3013B184F88C5038BD006903F0BE
:1021700065FF0021206904F061FA0021206904F064
:1021800077FB0421206904F059FA0421206904F046
:102190006FFB0821206904F051FA0821206904F03E
:1021A00067FBE0E790F88C30002BDCD0FFF7C0FC39
:1021B000206903F02EFF0021206904F0E9FA0421D0
:1021C000206904F0E5FA0821206904F0E1FACAE781
:1021D00082B08DED000ACDED010A80F8A01000F16B
:1021E000900302AA12E9030083E8030002B07047DB
:1021F00008B5D0ED457AB3EE0E7AF4EEC77AF1EE7B
:1022000010FA07D49FED087AF4EEC77AF1EE10FACF
:1022100004DC08BD0021FFF79FFFFAE7C0ED0C7A50
:102220000121FFF799FFF4E700000C4208B5D0ED5B
:102230004A7A9FED0B7AF4EEC77AF1EE10FA07DCDA
:102240009FED087AF4EEC77AF1EE10FA04D408BDD7
:102250000021FFF781FFFAE70121FFF77DFFF6E795
:1022600000008C420000824238B5044600F58A75B1
:102270002846FFF735F82846FFF7B2F82046FFF763
:10228000B7FF2046FFF7D2FF38BD10B50446012244
:102290000189C06802F0BAFF4FF4FA6001F07EFADB
:1022A00000222188606802F0B1FF4FF4FA7001F05B
:1022B00075FA00222189E06802F0A8FF4FF4FA7055
:1022C00001F06CFA002010BD4FF06043D3F8803E5F
:1022D00013F0010F11D04FF06043D3F8003E13F01C
:1022E000010F01D1704700BF4FF060431B68002B06
:1022F000F9D0C3B24FF06042137070472DE9F04F30
:102300008DB007AD00240794089409940A940B94A7
:10231000594B5A6942F400125A615A6902F4001288
:102320000192019A5A6942F400225A615A6902F4F0
:1023300000220292029A5A6942F480025A615A6952
:1023400002F480020392039A5A6942F400325A61FD
:102350005A6902F400320492049A5A6942F48022C3
:102360005A615A6902F480220592059A5A6942F428
:1023700080125A615B6903F480130693069BDFF8B1
:10238000049122464021484602F040FF224648F28E
:1023900017714FF0904002F039FFDFF8ECB02246A1
:1023A00041F21061584602F031FF22464021334885
:1023B00002F02CFFDFF8D48022460121404602F0D3
:1023C00025FF20230793089409942946484602F0E4
:1023D00039FE4FF0400ACDF81CA00126089609945A
:1023E00003270A972946484602F02CFE40F217734D
:1023F0000793089609940A9729464FF0904002F0F7
:1024000021FE41F210630793089609940A97294622
:10241000584602F017FE4FF440530793089409946E
:102420002946174802F00EFECDF81CA00896099424
:102430000A972946114802F005FE4FF4004307931E
:102440004FF01109CDF8209009940A9729464FF0D2
:10245000904002F0F7FD0796CDF8209009940A9776
:1024600032463146404602F0D1FE2946404602F04F
:10247000E9FD0DB0BDE8F08F0010024000140048E7
:10248000000400480010004800080048000C004804
:1024900000B583B0124B5A6942F001025A615A6981
:1024A00002F001020092009A5A6942F002025A6157
:1024B0005B6903F002030193019B002211460B208C
:1024C00002F050FC0B2002F05DFC00221146392086
:1024D00002F048FC392002F055FC03B05DF804FB23
:1024E0000010024008B5024802F0CDFA08BD00BF56
:1024F000080B002008B5024802F0C5FA08BD00BF6D
:10250000080B002030B58DB001AD05AC2B4622463E
:10251000002102F0E5F9034A29462046FFF721F998
:102520000DB030BDF80C002008B50268034B9A428C
:1025300000D008BD0248FFF7F7FCFAE7002C014085
:10254000480D002038B50C4604E014F8010BFFF7E5
:10255000BBFE2A46551E002AF7D1284638BD00008A
:1025600008B572B600210248FFF7F6FDFEE700BF8E
:10257000480D002010B59AB00024169417941894B2
:1025800019941394149415940C940D940E940F9420
:102590001094119412942C22214601A804F0BAFF41
:1025A00029482A4B03606423436084604FF47A73A4
:1025B000C36004614461846103F0B0FE002838D137
:1025C000214803F0DBFE002835D100231393149338
:1025D000159313A91C4804F0C1F900282DD16023DC
:1025E0000C9364230D9300230E930F931093119378
:1025F000129304220CA9144803F073FFF8B90023C6
:10260000019302930393049305934FF400520692AF
:10261000079308934FF0007209920A930B9301A954
:10262000094804F0E3F960B9074800F0F5FD1AB075
:1026300010BDFFF795FFFFF793FFFFF791FFFFF73F
:102640008FFFFFF78DFF00BF840900200034014099
:1026500030B597B0184B9A6942F400529A619B6961
:1026600003F400530193019B11A9002411944C60C1
:102670008C60CC600C614FF40063119302231293C1
:10268000042315930D4802F0DDFC02AD3C222146E7
:10269000284604F03FFF4FF400530293284603F00E
:1026A000DFF938B9FFF766FF0421054804F0E0F8C8
:1026B00017B030BDFFF754FF00100240000800487B
:1026C0008409002008B50D480D4B036008234360C2
:1026D00000238360C3604FF4003202614FF4401264
:1026E0004261037643768376C3760377437701F0BE
:1026F0002BFF00B908BDFFF733FF00BF080B002018
:102700000064004008B51048104B03604FF482731A
:102710004360002383604FF47062C2600222026152
:1027200043614FF4007282610822C2610362436216
:1027300083620721C1620363426303F0C1FA00B9F7
:1027400008BDFFF70DFF00BFA40A002000300140C4
:1027500010B596B000241394149415940C940D9411
:102760000E940F941094119412942C22214601A8D7
:1027700004F0D0FE3048314B036044602023836076
:1027800040F6C413C360046101234361846103F014
:10279000F5FD002843D1002313931493159313A937
:1027A000254804F0DBF800283BD160230C93642318
:1027B0000D9300220E9208230F9310921192129201
:1027C0000CA91D4803F08DFE00282CD100230D9389
:1027D00004220CA9184803F084FE30BB08220CA97F
:1027E000154803F07EFE10BB002301930293039370
:1027F0006422049205934FF40052069207930893C3
:102800004FF0007209920A930B9301A90A4804F051
:10281000EDF870B9084800F0FFFC16B010BDFFF7E6
:102820009FFEFFF79DFEFFF79BFEFFF799FEFFF768
:1028300097FEFFF795FE00BF580A0020002C0140CC
:1028400000B58BB00023079308930993019302937B
:10285000039304930593069322484FF0A04202602D
:102860004360836001220261437680F820304FF498
:102870008061C1624FF420718162C3600221C16135
:1028800080F83020082242610376436301F05AF851
:1028900000BB0023079307A9124801F0A7FDD8B990
:1028A00006230193012302930493002303930593CA
:1028B000069301A90B4801F0C3FB78B908230193E3
:1028C0000223029301A9074801F0BAFB40B90BB0FB
:1028D0005DF804FBFFF744FEFFF742FEFFF740FE02
:1028E000FFF73EFEA80C002000B58BB00023079335
:1028F000089309930193029303930493059306931A
:102900001A481B4A0260436083600361437680F883
:102910002030C36201228262C360C26180F830301D
:10292000042242610376436301F00CF8B8B9002336
:10293000079307A90D4801F059FD90B906230193AB
:10294000012302930023049303930593069301A9A3
:10295000064801F075FB30B90BB05DF804FBFFF7DA
:10296000FFFDFFF7FDFDFFF7FBFD00BF080C00209A
:102970000004005000B587B0002300930193029338
:102980000393049305932D482D4A026043608360AE
:1029900001220261437680F82030C3628262C36004
:1029A0000522C26180F83030082242610376436319
:1029B00000F0C8FF002834D10123009301930023C5
:1029C0000393072202920493059369461B4801F082
:1029D00037FB40BB04230093022301936946174849
:1029E00001F02EFB08BB05230093032301936946E6
:1029F000124801F025FBD0B90C2300930423019366
:102A000069460E4801F01CFB98B90D23009305237D
:102A100001936946094801F013FB60B907B05DF8FE
:102A200004FBFFF79DFDFFF79BFDFFF799FDFFF707
:102A300097FDFFF795FDFFF793FD00BFB80B002052
:102A40000005005000B587B0002300930193029366
:102A50000393049305931648164A0260436083600B
:102A60000361437680F82030C36201228262C36032
:102A7000C26180F83030042242610376436300F083
:102A800061FF80B904230093012301930023039382
:102A90000293049305936946054801F0D1FA20B9E1
:102AA00007B05DF804FBFFF75BFDFFF759FD00BFC2
:102AB000580C00200001005010B59EB014AC282224
:102AC0000021204604F026FD00210F911091119164
:102AD000129113913C22684604F01CFD02231493CA
:102AE00001221892102219921B934FF460131D9328
:102AF000204602F091FBF8B90F230F9302211091A9
:102B0000002311934FF48062129213930FA802F0E6
:102B1000D3FE98B941F284130093002304934FF439
:102B2000807209924FF400520A920C93684602F0A8
:102B300097FF28B91EB010BDFFF712FDFFF710FD7B
:102B4000FFF70EFD2DE9F04190B000F003FE4FF0CD
:102B500060434FF0FF32C3F8002EFFF7ADFF984AF5
:102B6000136843F001031360FFF7C8FBFFF790FC05
:102B7000FFF7A8FDFFF7C6FDFFF7EAFDFFF760FED0
:102B8000FFF7B2FEFFF7F6FEFFF75CFF8D4B5A69C9
:102B900042F480225A615B6903F480230093009B16
:102BA00001A9002501954D608D60CD600D614FF448
:102BB000806701970126029603230493824802F05E
:102BC00041FA2A464FF400414FF0904002F01EFBBC
:102BD0007E4804F021FC7E4C21467E48FEF782FDB3
:102BE000DFF834827C4BC8F800304046FEF7B4FD75
:102BF0004046FEF7EBFDFFF7E9F8DFF820823246AA
:102C00001021404602F002FB744BC4F82C31744B87
:102C1000C4F83031734B6361734B2361734B636250
:102C200084F88C50724B1A6822F480421A601A6839
:102C300042F040021A60A760C4F80C8026606D4B19
:102C400063602046FFF721FBFFF702FD2046FEF7F9
:102C500077FF29462046FFF77FFA2046FFF7F4F872
:102C600060B1654804F0D8FB5948644B0363012107
:102C7000FFF772FA00242546264682E0544BDA8D8F
:102C8000998D5F4804F056FBEEE700F081FD5D4B47
:102C90001A68B0FBF2F102FB11001B685A4AA2FB52
:102CA0000323B0EB530F26D216B185F001050026A1
:102CB00075B1564B93ED000A8DED060A544BD3EDDA
:102CC000000ACDED070A01214148FFF781FA69E0CA
:102CD0004E4B93ED000AB1EE400A8DED080A4C4BC5
:102CE000D3ED000AF1EE600ACDED090A0121384862
:102CF000FFF76EFA56E0364BD3ED077AB2EE047A60
:102D0000F4EEC77AF1EE10FA4CBF01270027BAEEB5
:102D1000047AF4EEC77AF1EE10FA07F00107D8BF93
:102D200000276FB9D5B19FED3B0A8DED0C0AF9EE86
:102D3000040ACDED0D0A01212548FFF749FA31E0DB
:102D4000DFED340ACDED0A0ACDED0B0AB0EE600AD4
:102D500001211846FFF73CFA3E4623E09FED2D0A7D
:102D60008DED0E0AF1EE040ACDED0F0A012118488F
:102D7000FFF72EFA16E02848FEF7C6FD00F008FD22
:102D800004461348FFF770FAFEF7BAFC1D4B1B68A8
:102D900043B11F4BD3ED007AF5EE407AF1EE10FA15
:102DA0007FF473AF00F0F4FC031B4F2BE9D91A4BEF
:102DB00093F83130002BDED01748FEF745FDDAE7F7
:102DC000001000E000100240000400481046010816
:102DD000480D0020D0090020080B0020B80B00206F
:102DE000580C0020A40A0020580A0020A80C00203B
:102DF00000300140000C0048204601080000C84295
:102E00003C46010810000020ABAAAAAA80090020B5
:102E10000C00002000000000F80C00200008004812
:102E200082B00A4B9A6942F001029A619A6902F0F3
:102E300001020092009ADA6942F08052DA61DB699D
:102E400003F080530193019B02B0704700100240D1
:102E5000F0B593B0044600230D930E930F93109397
:102E600011930368B3F1A04F64D0914A934200F0EC
:102E7000A280904A934200F0E7808F4A934240F04C
:102E80008A808E4A136801331360012B00F00181A0
:102E90008B4B5A6942F400125A615A6902F40012CB
:102EA0000A920A9A5A6942F480225A615A6902F4D3
:102EB00080220B920B9A5A6942F480125A615B6924
:102EC00003F480130C930C9B4FF480430D93032762
:102ED0000E970DAE31467B4802F0B4F84FF44043F4
:102EE0000D930E9700250F953146774802F0AAF80A
:102EF0004FF440730D930E970F953146734802F0CF
:102F0000A1F87348734B0360456085608023C360FC
:102F10004FF4807303614FF4806343612023836126
:102F2000C56101F08DFF002840F0BE80684BA363AF
:102F30005C6230E0684A136801331360012B2CD0C7
:102F40005F4B5A6942F400225A615B6903F4002323
:102F50000293029B0F230D9303230E930DA95F4849
:102F600002F070F85E485F4B0360002343608360AB
:102F70008023C3604FF4807303614FF48063436127
:102F8000202383614FF48053C36101F059FF78B966
:102F9000534BA3635C6213B0F0BD494B5A6942F0D6
:102FA00080525A615B6903F080530193019BC7E72C
:102FB000FFF7D6FAECE7484A136801331360012B98
:102FC00037D03F4B5A6942F400325A615A6902F4D1
:102FD00000320492049A5A6942F400225A615A69F2
:102FE00002F400220592059A5A6942F480225A613D
:102FF0005B6903F480230693069B80230D930325CE
:103000000E950DAC21464FF0904002F01BF82023A6
:103010000D930E9500260F962146304802F012F8C7
:1030200004230D930E950F962146274802F00AF8C7
:10303000B1E7234B5A6942F080525A615B6903F051
:1030400080530393039BBCE71C4A1368013313604E
:10305000012B13D01A4B5A6942F400125A615B6972
:1030600003F400130893089B4FF480730D9303231C
:103070000E930DA9134801F0E5FF8CE7104B5A6938
:1030800042F000525A615B6903F000530793079BBB
:10309000E0E70B4B5A6942F000525A615B6903F05A
:1030A00000530993099BF3E6FFF75AFA3EE700BF86
:1030B0000001005000040050000500507C0E00206C
:1030C000001002400010004800040048000C0048B6
:1030D000300B00201C040240800E00200008004835
:1030E000740B00200800024000B589B00023039350
:1030F000049305930693079302681C4B9A4202D0EF
:1031000009B05DF804FB03F5D633DA6942F00072CA
:10311000DA61DA6902F000720192019A5A6942F4A6
:1031200000325A615B6903F400330293029B4FF44F
:10313000C0530393022304930323069309230793A5
:1031400003A94FF0904001F07DFF012211461420A9
:1031500001F008FE142001F015FE01221146152091
:1031600001F000FE152001F00DFEC9E700640040EB
:1031700000B589B000230393049305930693079346
:103180000268144B9A4202D009B05DF804FB03F5C3
:1031900060439A6942F480529A619A6902F48052BB
:1031A0000192019A5A6942F400325A615B6903F450
:1031B00000330293029B60230393022304930323AF
:1031C00006930523079303A94FF0904001F03AFFBF
:1031D000DAE700BF0030014002680E4B9A4200D08F
:1031E000704700B583B003F564439A6942F4006206
:1031F0009A619B6903F400630193019B00221146CD
:10320000192001F0AFFD192001F0BCFD03B05DF8FD
:1032100004FB00BF002C014070B588B0002303936D
:1032200004930593069307930268234B9A4201D0B7
:1032300008B070BD03F564435A6942F400225A6134
:103240005A6902F400220092009A5A6942F48022DC
:103250005A615A6902F480220192019A5A6942F431
:1032600000125A615B6903F400130293029B4FF44E
:10327000005303930224049405940423079303AD9D
:1032800029460E4801F0DEFE0323039304940594BF
:1032900000260696062307932946094801F0D2FE28
:1032A0004FF42853039304940594069607942946F3
:1032B000044801F0C7FEBBE7002C014000080048AD
:1032C0000004004800100048FEE7FEE7FEE7FEE7C6
:1032D000FEE770477047704708B500F04DFA08BD2B
:1032E00008B5024801F053FE08BD00BF740B002072
:1032F00008B5024802F0E8FE08BD00BF580A0020E9
:1033000008B5024801F043FE08BD00BF300B0020A5
:1033100008B5024803F054FC08BD00BFD0090020E6
:1033200010EE102A00E000BF4FF0604353F8203049
:10333000002BF8D013464FF0604242F8203070471F
:103340000120704708B504F087F9162303604FF099
:10335000FF3008BD08B54FF0FF31FFF7F3FFFEE780
:1033600070B50C461646002506E0AFF300802146F6
:1033700001F8010B01350C46B542F6DB304670BD55
:103380004FF0FF3070474FF400534B600020704700
:10339000012070470020704710B503460C4A0D49C4
:1033A0000D48006840B10C4800680344521A93422B
:1033B00006D8094A136010BD0748084C0460F2E7BC
:1033C00004F04AF90C2303604FF0FF30F3E700BF2D
:1033D00000A0002000040000840E0020A0110020A6
:1033E000034AD2F8883043F47003C2F8883070473B
:1033F00000ED00E000B52DED048B89B0F0EE408AC1
:10340000B0EE608AB0EE419A8DED020ACDED030A6E
:1034100020EE000A60EEA07A30EE270A10F052FF8C
:10342000B4EEC90AF1EE10FA18DDC9EE007A68EEC2
:10343000A78ACDED048A28EE278A8DED058A04AB94
:1034400093E8030008AB03E903009DED060ADDEDF8
:10345000070A09B0BDEC048B5DF804FBF7EE007AB7
:10346000E5E700008AB08DED030ACDED040A8DED8D
:10347000051A30EE000A30EE600A30EE410AF0EE36
:10348000087A80EE277A8DED067A70EEC10A9FEDFC
:103490000A7A60EE870A80EEA77A8DED077A06AB8E
:1034A00093E803000AAB03E903009DED080ADDED94
:1034B000090A0AB0704700BFD7B3DD3F8CB08DED6D
:1034C000040ACDED050A8DED060ADFED117A60EEF6
:1034D000A70A70EEC07AB6EE007A67EE877ACDED75
:1034E000077AB1EE400A30EE600A20EE070A8DED51
:1034F000080A06AB93E807000CAB03E907009DED53
:10350000090ADDED0A0A9DED0B1A0CB0704700BFE9
:10351000D7B3DD3F8AB08DED040ACDED050A8DED00
:10352000021ACDED031A60EE017A20EEA17A77EE51
:10353000877ACDED067A61EEC01A60EE810A71EEEF
:10354000A01ACDED071A06AB93E803000AAB03E916
:1035500003009DED080ADDED090A0AB070478AB044
:103560008DED040ACDED050A8DED021ACDED031A9D
:1035700060EE017A20EEA17A77EEC77ACDED067A79
:1035800020EE210A60EE810A30EE200A8DED070A56
:1035900006AB93E803000AAB03E903009DED080ABC
:1035A000DDED090A0AB07047DFED287AB4EEE70ACC
:1035B000F1EE10FA3BDD30EE670ADFED257AB4EE6E
:1035C000E70AF1EE10FA3CDD30EE670A0121DFED8B
:1035D000217AB4EEE70AF1EE10FA03DDDFED1C7A92
:1035E00037EEC00ADFED1C7A80EE277AFCEEC77A50
:1035F00017EE903A9BB2194A02EB830090ED006AF5
:10360000581C02EB8002D2ED006A07EE903AF8EE09
:10361000677A77EE677AB7EE000A30EE670A20EE37
:10362000060A66EEA77A30EE270A61B97047B5EE52
:10363000C00AF1EE10FAC0D5DFED047A30EE270AA9
:10364000BBE70021C3E7B1EE400AEFE7DB0FC9405B
:10365000DB0F4940DB0FC93F25A54A3C180000207D
:1036600008B5DFED037A30EE270AFFF79DFF08BDAE
:10367000DB0FC93F00B52DED028B87B0B0EE408A5D
:10368000FFF7EEFF8DED020AB0EE480AFFF78CFF60
:103690008DED030A02AB93E8030006AB03E90300D8
:1036A0009DED040ADDED050A07B0BDEC028B5DF867
:1036B00004FB0000DFF834D0FFF792FE0C480D4900
:1036C0000D4A002302E0D458C4500433C4188C427D
:1036D000F9D30A4A0A4C002301E013600432A242E3
:1036E000FBD303F0BFFFFFF72DFAFEE700A0002099
:1036F00000000020D4080020284C0108D408002035
:10370000A0110020FEE7000010B504460E4B1A7809
:103710004FF47A73B3FBF2F30C4A1068B0FBF3F08A
:1037200001F03EFB68B90F2C01D901200AE000220C
:1037300021464FF0FF3001F015FB054B1C600020C7
:1037400000E0012010BD00BF18020020140000207E
:103750001C02002008B5074A136843F010031360E9
:10376000032001F0EDFA0F20FFF7CEFFFFF758FB23
:10377000002008BD00200240034A1168034B1B785B
:103780000B441360704700BF880E00201802002011
:10379000014B1868704700BF880E002038B50446FA
:1037A000FFF7F6FF0546B4F1FF3F02D0044B1B784C
:1037B0001C44FFF7EDFF401BA042FAD338BD00BF09
:1037C0001802002070477047704738B50268936848
:1037D00003F00303012B01D0002038BD0446136819
:1037E00013F0010F33D0936803F00D03012B09D0C0
:1037F000036C43F010030364436C43F00103436420
:103800000120EAE7936843F0020393600368032210
:103810001A60FFF7BDFF054623689B6813F0010F90
:1038200013D0FFF7B5FF401B0228F5D923689B682A
:1038300013F0010FF0D0236C43F010032364636C8A
:1038400043F0010363640120C7E70020C5E70020BF
:10385000C3E7000038B504460268936803F0030329
:10386000012B0DD091681A4B19420FD0236C43F0F5
:1038700010032364636C43F001036364012038BDCB
:10388000136813F0010FEDD00020F8E7936843F0C0
:1038900001039360FFF77CFF054623681B6813F064
:1038A000010F13D1FFF774FF431B022BF5D92368D7
:1038B0001B6813F0010FF0D1236C43F01003236455
:1038C000636C43F0010363640120D8E70020D6E76E
:1038D0003F00008008B5406A036C43F04003036476
:1038E000436C43F004034364FFF76EFF08BD08B563
:1038F000406AFFF768FF08BD08B5436A1A6C12F00A
:10390000500F1AD11A6C42F400721A641A68D26805
:1039100012F4406F0DD15A7E5AB91A6C22F480729B
:103920001A641A6C12F4805F03D11A6C42F001021F
:103930001A641846FFF746FF08BD9B6B1B6B984740
:10394000FAE7000030B597B000230193002800F09B
:103950002F810446036C13F0100F52D1036CABB1EE
:10396000002023689A6812F0805F03D09B6813F0F0
:10397000005F47D0236C23F0120343F0100323644D
:10398000636C43F00103636401203BE04364C36460
:10399000836480F83C30FFF75BFA23689B6813F080
:1039A000805F01D00020DCE72046FFF70EFF236C8C
:1039B00013F0100FD5D10028D3D1236C23F48853F2
:1039C00023F0020343F0020323642268936823F088
:1039D000405393602268936843F080539360754B23
:1039E0001B68754AA2FB03239B0C03EB83035B005C
:1039F000019302E0019B013B0193019B002BF9D154
:103A0000AFE70020236C13F0100F40F0C8800028AF
:103A100040F0C5802368996811F0040140F0BF8030
:103A2000226C22F4817242F002022264B3F1A04FB0
:103A300014D0624A93420FD0614DB3F1A04F0FD022
:103A40005E4A934267D05F4A934268D05E4A93428F
:103A500069D00022029205E05C4DEEE75B4DECE799
:103A6000564A02929A6802F00302012A5FD0029B32
:103A700023B19A6802F00302012A5DD0AB6823F4F7
:103A8000403362681343AB60627E5303656B012D64
:103A900001D04FF480510B43E1680B43A1680B4305
:103AA00094F8201001294CD0A26A012A0AD021687A
:103AB000444DA94258D005F58075A94254D0E16A19
:103AC00011430B432268916811F00C0F0CD1D1689F
:103AD00021F4804121F00201D160217E94F8302050
:103AE000520042EA813213432168CD68384A2A40A5
:103AF0001A43CA602369012B48D02268136B23F054
:103B00000F03136300236364236C23F0030343F068
:103B1000010323644AE04FF0A0420292A2E702F5BB
:103B2000807202929EE7A2F5807202929AE71B6869
:103B300013F0010FA8D19AE71B6813F0010FA3D16E
:103B40009CE732B9626A013A43EA424242F4803366
:103B5000AAE7226C22F0220242F020022264626C68
:103B600042F0010262649FE7B2F5307F08D0B2F5FF
:103B7000807F08D0B2F5E07FA1D14FF480729EE73C
:103B80004FF4E0729BE74FF4307298E721680B6BBB
:103B900023F00F03E269013A13430B63B2E7236C8E
:103BA00023F0120343F010032364012017B030BD4B
:103BB0000120FBE71400002083DE1B4300010050BE
:103BC00000070050000400500005005000030050A2
:103BD00007C0F0FF03689B6813F0040F40F0AD804E
:103BE00010B5044690F83C30012B00F0A88001236A
:103BF00080F83C30FFF72EFE002840F09A80236CBE
:103C000023F4706323F0010343F480732364236877
:103C1000B3F1A04F33D04B4A934230D04A4A926816
:103C200012F01F0F30D1226C22F480122264DA6865
:103C300012F0007F05D0226C22F4405242F48052F0
:103C40002264226C12F4805F3ED0626C22F0060285
:103C50006264002284F83C201C221A602368B3F1BD
:103C6000A04F34D0374A934231D0374A926812F08D
:103C70001F0F31D19A6842F004029A605CE0334A27
:103C8000926812F01F0FCED0B3F1A04FCBD0304AC4
:103C90009342C8D0226C42F480122264294A934293
:103CA0000CD02B4AD268C2F34062002AC9D0226CE1
:103CB00022F4405242F480522264C2E74FF0A04204
:103CC000D268C2F34062F0E700226264C1E71F4A93
:103CD000926812F01F0FCDD0B3F1A04F09D0194A4E
:103CE000934206D0184A926802F01F02052A06D1B4
:103CF000C0E7164A926802F01F02052ABAD0B3F153
:103D0000A04F09D00F4A934206D00F4A926802F0A2
:103D10001F02092A06D1ADE70C4A926802F01F0281
:103D2000092AA7D0B3F1A04FA4D0094A934203D1E6
:103D3000A0E7002384F83C3010BD02207047022029
:103D4000FAE700BF000100500007005000030050D8
:103D5000000400502DE9F04104460E464569082D47
:103D600010D00368B3F1A04F35D04E4A93422FD004
:103D70004D4A916811F01F0F38D1DB6813F0010F25
:103D80002BD10C252368B3F1A04F3ED0454A934276
:103D90003BD0454A926812F01F0F3BD1DF68FFF716
:103DA000F7FC804623681A682A4249D1B6F1FF3FE2
:103DB000F8D0002E3DD123681B682B42F2D1236C32
:103DC00043F004032364002384F83C30032064E0C0
:103DD00002F50072CDE7354ACBE7236C43F02003B0
:103DE0002364002384F83C30012056E0936813F4E8
:103DF000404F01D10C25C5E7236C43F02003236419
:103E0000002384F83C30012047E0284A926812F0F1
:103E10001F0FC3D0B3F1A04FC0D0254A9342BDD0ED
:103E2000204A934202D0224BDF68B8E74FF0A0430C
:103E3000FAE7FFF7ADFCA0EB0800B042B2D9BAE751
:103E4000226C42F400722264DA6812F4406F1FD1CF
:103E500017F4005F1CD11A6812F0080F18D09A6886
:103E600012F0040F0CD1226C22F480722264226CB6
:103E700012F4805F0CD1226C42F00102226407E050
:103E8000226C42F020022264626C42F00102626401
:103E900017F4804F03D11D600020BDE8F0810020A1
:103EA000FBE700BF00010050000700500003005076
:103EB00000040050F8B5164603689A6812F0040F23
:103EC00040F0A88004460D4690F83C20012A00F0FE
:103ED000A380012280F83C20B3F1A04F0AD04F4AC2
:103EE000934207D04E4B986800F01F00B0FA80F064
:103EF000400906E04B4B986800F01F00B0FA80F0D4
:103F0000400928B9002384F83C3001273846F8BD21
:103F10002046FFF79FFC0746002877D1236C23F447
:103F2000706323F0010343F4807323642368B3F1C7
:103F3000A04F43D0394A934240D0394A926812F098
:103F40001F0F40D1226C22F480122264DB6813F030
:103F5000007F05D0236C23F4405343F48053236443
:103F6000236C13F4805F4ED0636C23F0060363640C
:103F7000002384F83C30A36B2B4A9A62A36B2B4A34
:103F8000DA62A36B2A4A1A6323681C221A60226829
:103F9000536843F0100353602268D36843F0010371
:103FA000D360216833462A464031A06B00F06EFF93
:103FB0002268936843F004039360A7E7194A926864
:103FC00012F01F0FBED0B3F1A04FBBD0194A9342DD
:103FD000B8D0226C42F480122264104A93420CD072
:103FE000144BDB68C3F34063002BB9D0236C23F47C
:103FF000405343F480532364B2E74FF0A043DB689F
:10400000C3F34063F0E700236364B1E7002384F85F
:104010003C307BE7022779E7022777E70001005071
:104020000007005000030050F9380008EF3800087E
:10403000D5380008000400500368186C7047000071
:1040400030B496B00022019290F83C20012A00F092
:10405000BB810346012280F83C200068826812F090
:10406000040F40F0A6814A68042A35D8046B02EB9D
:10407000420252004FF01F0C0CFA02FC24EA0C0C16
:104080000C6894404CEA040404631868826812F0D7
:104090000C0F6BD10A68092A4FD9846902EB4202DE
:1040A0001E3A4FF0070C0CFA02FC24EA0C048D684F
:1040B00005FA02F22243826148691C68E268C2F391
:1040C000C102520090400A69013A032A00F2978027
:1040D000DFE802F042747F8A092A10D8446B02EBB1
:1040E000420252001E3A4FF01F0C0CFA02FC24EA66
:1040F0000C040D6805FA02F222434263C5E70E2A5A
:104100000DD8846B02EB420252003C3A1F259540C9
:1041100024EA05040D6895402C438463B5E7C46B1D
:1041200002EB420252005A3A1F25954024EA050448
:104130000D6895402C43C463A7E7446902EB420233
:104140004FF0070C0CFA02FC24EA0C048D6805FA07
:1041500002F222434261AFE7256E9C4A2A400D6875
:1041600040EA85652A4342F0004222661868826868
:1041700002F00302012A72D0CA68012A75D0D0F871
:10418000B02001240D68AC4022EA0402C0F8B0203F
:104190001A68B2F1A04F00F091808D48824200F081
:1041A0008B808C4C0968102900F08A80112900F05E
:1041B0009B80122900F09D800020FFE0656E834AFD
:1041C0002A400D6840EA85652A4342F00042626653
:1041D000CCE7A56E7D4A2A400D6840EA85652A43F2
:1041E00042F00042A266C1E7E26E784D15400A68CF
:1041F00040EA8262154345F00045E566B6E7226E67
:1042000002F0F8420868B2EB806F03D1226E22F010
:10421000004222661A68506E00F0F8400C68B0EB5D
:10422000846F03D1506E20F0004050661A68906E83
:1042300000F0F8400C68B0EB846F03D1906E20F072
:10424000004090661A68D06E00F0F8400C68B0EB41
:10425000846F8BD1D06E20F00040D06686E7026874
:1042600012F0010F88D00020A8E0D0F8B0200D682F
:104270000124AC402243C0F8B0200A68092A0DD9B5
:104280001D68A86902EB42021B3A0724944020EA09
:1042900004008C6894402043A86179E71D68686930
:1042A000013202EB42020724944020EA04008C68A9
:1042B0009440204368616BE7474C73E7464C71E7D5
:1042C000A06810F4000F7FF471AFB2F1A04F16D0C8
:1042D0003F48824229D0414882422AD04048824207
:1042E0002BD0002002900CE0A06810F0807FECD072
:1042F0005FE7A06810F4800FE7D000205EE034484C
:104300000290906800F0030001281AD0029820B1B2
:10431000856805F00305012D1DD0102920D0112935
:1043200038D012293FD0002048E04FF0A040029042
:10433000E7E700F580700290E3E7A0F58070029057
:10434000DFE7106810F0010FE0D01A6C42F0200295
:104350001A64012032E0006810F0010FF5D1DCE7AB
:10436000B2F1A04FDBD1A26842F40002A2601D4A64
:1043700012681D49A1FB0212920C02EB820252004C
:10438000019202E0019A013A0192019A002AF9D1C0
:10439000002013E0B2F1A04FC3D1A26842F08072B6
:1043A000A26000200AE0A26842F48002A26000201D
:1043B00004E01A6C42F020021A640120002283F803
:1043C0003C2016B030BC70470220FAE700F0FF83B3
:1043D000000100500007005000030050000400508E
:1043E000000500501400002083DE1B4370B495B01C
:1043F00003460268B2F1A04F0BD04E4882424BD028
:104400004D4882424CD04D4882424DD00020009011
:1044100001E0484800900098002800F0878093F859
:104420003CC0BCF1010F00F08380012483F83C40C4
:10443000946814F0040F6ED1846814F0040F6AD1EC
:10444000B2F1A04F36D03B4CA24231D03C4A0C686E
:10445000002C3DD0946824F4604493F830504E68AA
:1044600046EA453C44EA0C0494601D68AC6804F0DC
:104470000304012C20D0846804F00304012C21D013
:10448000906820F4716020F00F000C688968214367
:1044900008439060002043E04FF0A0400090BAE74E
:1044A00000F580700090B6E7A0F580700090B2E74C
:1044B000244ACCE7234ACAE72C6814F0010FDAD06B
:1044C00000202DE0006810F0010FD9D0002027E077
:1044D000916821F4604191601C68A16801F00301BA
:1044E00001290CD0816801F0030101290DD09168E8
:1044F00021F4716121F00F019160002010E021682A
:1045000011F0010FEED000200AE0016811F0010F58
:10451000EDD0002004E01A6C42F020021A64012061
:10452000002283F83C2015B070BC70470120FAE7E8
:104530000220F8E700010050000400500005005080
:104540000007005000030050002800F0A18038B59B
:10455000044690F82030D3B12268136843F0010379
:104560001360FFF715F9054623685A6812F0010F2A
:1045700010D1FFF70DF9401B0A28F5D9636A43F4FF
:1045800000336362052384F82030012038BDFEF734
:10459000ABFDE1E71A6822F002021A60FFF7F8F8B3
:1045A000054623685A6812F0020F0DD0FFF7F0F8A5
:1045B000401B0A28F5D9636A43F40033636205237C
:1045C00084F820300120E1E7227E012A3DD01A68DC
:1045D00022F080021A60637E012B3BD022681368B0
:1045E00023F040031360A37E012B39D022681368A7
:1045F00023F020031360E37E012B37D02268136879
:1046000043F010031360237F012B35D02268136819
:1046100023F008031360637F012B33D022681368F3
:1046200023F004031360A368E26813432269134371
:10463000626913436268013A21681343CB61002029
:104640006062012384F82030A0E71A6842F08002FB
:104650001A60C0E72268136843F040031360C2E7A2
:104660002268136843F020031360C4E722681368CC
:1046700023F010031360C6E72268136843F00803B1
:104680001360C8E72268136843F004031360CAE7A5
:1046900001207047026890F82030013BDBB2012B0B
:1046A00005D9436A43F4802343620120704730B444
:1046B000D2F8003243F00103C2F800324B6903F034
:1046C0001F03012000FA03F3D2F81C026FEA030C67
:1046D00020EA0300C2F81C02C869B0B9D2F80C0283
:1046E0000CEA0000C2F80C028C884869CD6844EAE4
:1046F0000544483042F830400C8848698D6844EAE7
:104700000544483002EBC0004460C86901281BD052
:10471000886980BBD2F804020CEA0000C2F80402E7
:10472000086970BBD2F814020CEA0000C2F8140247
:10473000096A01292BD0D2F8003223F00103C2F814
:104740000032002030BC7047D2F80C021843C2F887
:104750000C028C8848690D6844EA0544483042F8E8
:1047600030408C8948698D6844EA0544483002EB42
:10477000C0004460CCE7D2F804021843C2F8040237
:10478000CEE7D2F814021843C2F81402D0E7D2F8E8
:104790001C120B43C2F81C32CDE770B5044690F8EA
:1047A0002030012B06D0436A43F4002343620126E4
:1047B000304670BDDEB2022380F8203002681368F4
:1047C00023F001031360FEF7E3FF054623685B68EF
:1047D00013F0010F0CD0FEF7DBFF431B0A2BF5D9BA
:1047E000636A43F400336362052384F82030DFE713
:1047F00000266662DCE730B590F820C00468A46843
:104800000CF1FF3C5FFA8CFCBCF1010F62D814F094
:10481000E05F59D0C4F3016C012404FA0CF41C606D
:104820008B68002B3DD10D68CB68046843EA455581
:104830000CF118031B01E55003680C690CF1180E0C
:1048400003EB0E135C600B7D012B35D0D17993798E
:104850001B0443EA0163517943EA01231479016897
:10486000234301EB0C11C1F88C31D17893781B04F0
:1048700043EA0163517843EA0123117802680B434C
:1048800002EB0C12C2F8883102680CF1180C4FEAE6
:104890000C1C52F80C3043F0010342F80C3000209D
:1048A0001DE04C6843EAC403CC6823430CF11804B0
:1048B000240105682B51BFE7036803EB0E13596809
:1048C00041F480715960C1E7436A43F400134362C5
:1048D000012004E0436A43F480234362012030BD99
:1048E00090F820C00CF1FF3C5FFA8CFCBCF1010F8A
:1048F00000F2A58030B451B90468E46814F0030FE5
:1049000010D1436A43F40013436201207EE004683F
:10491000246914F0030F05D1436A43F40013436282
:10492000012073E0056801F11B0424012C5904F0F7
:1049300004049460002C6BD1056801F11B04240170
:104940002C59640D1460046801F11B0C4FEA0C1C17
:1049500054F80C4004F00204D4600468A444DCF869
:10496000045015F0080F5BD008241461046801F1AD
:104970001B0C04EB0C146468C4F3072494610468F2
:1049800004EB0C146468240C5461026802EB0112FD
:10499000D2F8B8211A70026802EB0112D2F8B821DD
:1049A000C2F307225A70026802EB0112D2F8B82152
:1049B000C2F307429A70026802EB0112D2F8B821E2
:1049C000120EDA70026802EB0112D2F8BC211A71E1
:1049D000026802EB0112D2F8BC21C2F307225A711D
:1049E000026802EB0112D2F8BC21C2F307429A71AD
:1049F000026802EB0112D2F8BC21120EDA71C1B9C1
:104A00000268D36843F02003D360002030BC7047B5
:104A1000056801F11B0424012C59E408546092E755
:104A200001F11B0504EB0514646804F00F04146124
:104A30009CE70268136943F020031361E5E7436ACA
:104A400043F4802343620120704790F82030013BFB
:104A5000DBB2012B05D9436A43F480234362012072
:104A60007047026853690B435361002070477047D9
:104A7000704770477047704770477047704770477E
:104A80007047704770472DE9F84F054603685C6929
:104A9000D3F804809F68D3F80CA0D3F81090D3F813
:104AA00018B014F001063BD017F0010616D0012211
:104AB0009A6017F0020F08D117F0040F0CD117F00D
:104AC000080606D04FF4805608E0FFF7D0FF002616
:104AD00004E0FFF7CFFF01E04FF4006617F4807F9A
:104AE0000DD02B684FF480729A6017F4007F40F06D
:104AF000968017F4806F00F0968046F4005617F405
:104B0000803F0DD02B684FF480329A6017F4003F3D
:104B100040F0938017F4802F00F0938046F4004615
:104B200014F0080F07D01AF0100F04D046F40076E6
:104B30002B681022DA6014F0040F03D01AF0080F6B
:104B400040F0898014F0020F05D02B68DB6813F069
:104B5000030F40F0878014F0400F07D019F0100FBA
:104B600004D046F480662B6810221A6114F0200FDE
:104B700002D019F0080F79D114F0100F04D02B686F
:104B80001B6913F0030F78D114F4003F02D018F022
:104B9000100F76D114F4803F02D018F0080F77D1AF
:104BA00014F4004F37D018F0040F31D014F4807F84
:104BB00004D01BF0010F01D046F0010614F4007F71
:104BC00004D01BF0020F01D046F0020614F4806FEF
:104BD00004D01BF0040F01D046F0040614F4006F5B
:104BE00016D01BF0700B13D0BBF1400F66D056D817
:104BF000BBF1200F5CD0BBF1300F5CD0BBF1100FCC
:104C000001D146F008062A68936923F07003936186
:104C10002B6804225A60002E56D1BDE8F88F284632
:104C2000FFF726FF6BE717F4006F02D046F48046CB
:104C300065E72846FFF71FFF61E72846FFF719FFE2
:104C40006EE717F4002F02D046F4803668E7284656
:104C5000FFF712FF64E72B680822DA602846FFF7A7
:104C60000CFF6FE72846FDF74DFC74E72B68082220
:104C70001A612846FFF703FF7EE72846FFF7FEFE8E
:104C800082E72B6810225A602846FFF7F9FE81E779
:104C90002B6808225A602846FFF7F3FE80E7BBF135
:104CA000500F0ED0BBF1600FADD146F48076AAE76D
:104CB00046F01006A7E746F02006A4E746F04006B7
:104CC000A1E746F080069EE76B6A33436B62284695
:104CD000FFF7D8FEA1E70000002808DB0901C9B2F0
:104CE00000F1604000F5614080F80013704700F06B
:104CF0000F000901C9B2014B1954704714ED00E0CF
:104D000000B500F00700C0F1070CBCF1040F28BF8C
:104D10004FF0040C031D062B0FD9C31E4FF0FF3EAE
:104D20000EFA0CF021EA000199400EFA03FE22EA85
:104D30000E0241EA02005DF804FB0023EEE70000EA
:104D4000074AD36823F4E0631B041B0C000200F441
:104D5000E060034343F0BF6343F40033D360704724
:104D600000ED00E010B50446054BD868C0F3022002
:104D7000FFF7C6FF01462046FFF7AEFF10BD00BF9C
:104D800000ED00E0002807DB00F01F0240090123CE
:104D90009340024A42F82030704700BF00E100E033
:104DA0000138B0F1807F0BD24FF0E0235861054A03
:104DB000F02182F823100020986107221A617047C1
:104DC0000120704700ED00E030B40124056CAC40D8
:104DD000C56B6C60046863604368102B05D0036882
:104DE00099600368DA6030BC704703689A600368B2
:104DF000D960F8E702680C4B9A420AD80B4B13446F
:104E00000B4AA2FB03231B099B000364094BC363EA
:104E10007047094B1344064AA2FB03231B099B005E
:104E20000364064BC363704707040240F8FFFDBFED
:104E3000CDCCCCCC00000240F8FBFDBF000402400A
:104E400010B310B50446022380F8213001680A68C7
:104E50006FF30D12436880680343E06803432069E1
:104E6000034360690343A0690343E06903431343B9
:104E70000B602046FFF7BEFF0020A063012384F8EB
:104E8000213084F8200010BD0120704738B5044659
:104E900090F82000012831D0012084F8200094F8F7
:104EA0002100012804D0002384F82030022038BDDE
:104EB000022084F821000020A0632568286820F0E3
:104EC000010028602046FFF77FFFE36A5BB122689C
:104ED000136843F00E0313602268136843F0010364
:104EE00013600020E3E72268136843F00A031360AD
:104EF0002268136823F004031360EDE70220D6E76D
:104F0000034690F82120022A06D004228263002260
:104F100080F820200120704701680A6822F00E0204
:104F20000A6001680A6822F001020A60026CC06B24
:104F3000012101FA02F2426083F82110002083F877
:104F40002000704708B590F82130022B03D00423CD
:104F50008363012008BD0268136823F00E03136009
:104F60000268136823F001031360036CC16B012214
:104F700002FA03F34B6080F82120002380F82030F0
:104F8000436B13B198470020E4E70020E2E738B50F
:104F9000C36B1A6804682568016C04238B401342B4
:104FA00013D015F0040F10D0236813F0200F03D195
:104FB000236823F004032360016CC26B04238B403D
:104FC0005360C36A03B1984738BD02238B40134234
:104FD0001AD015F0020F17D0236813F0200F06D156
:104FE000236823F00A032360012380F82130016C39
:104FF000C26B02238B405360002380F82030836A09
:10500000002BE1D09847DFE708238B401342DBD029
:1050100015F0080FD8D0236823F00E032360026C2C
:10502000C16B012303FA02F24A60836380F82130E6
:10503000002380F82030036B002BC5D09847C3E7CE
:10504000806B7047F0B583B0002362E085685E0036
:105050000324B44025EA0405CC68B4402C438460A2
:10506000456825EA0C054C68C4F300149C402C43A9
:1050700044605FE0DD08083550F8254003F0070C78
:105080004FEA8C0C4FF00F0E0EFA0CFE24EA0E0EB7
:105090000C6904FA0CF444EA0E0440F8254060E080
:1050A000042400E0002404FA0EF42C430CF1020C5A
:1050B000524D45F82C40524CA568D44325EA0206CF
:1050C0004F6817F4801F01D042EA05064C4DAE60D0
:1050D000ED6804EA05064F6817F4001F01D042EAA4
:1050E0000506474DEE606D6804EA05064F6817F443
:1050F000003F01D042EA0506414D6E602D682C400C
:105100004E6816F4803F01D042EA05043C4A146020
:1051100001330A6832FA03F46ED04FF0010C0CFA36
:1051200003FC1CEA0202F3D04C6804F00304013CC7
:10513000012C8BD94C6804F00304032C0CD0C468F8
:105140005D004FF0030C0CFA05FC24EA0C0C8C6893
:10515000AC4044EA0C04C4604C6804F00304022C24
:1051600088D004684FEA430E4FF0030C0CFA0EFC93
:1051700024EA0C0C4C6804F0030404FA0EF444EA2C
:105180000C0404604C6814F4403FC1D01D4CA56968
:1051900045F00105A561A46904F001040194019C96
:1051A0004FEA930C0CF10205144C54F8255003F00F
:1051B000030E4FEA8E0E0F2404FA0EF425EA0405BE
:1051C000B0F1904F3FF46EAF0F4CA0420ED004F5FB
:1051D0008064A0420CD004F58064A0420AD004F59B
:1051E0008064A0423FF45CAF05245CE701245AE7E9
:1051F000022458E7032456E703B0F0BD0000014045
:105200000004014000100240000400480AB181611E
:105210007047816270470000002800F0FF8270B57F
:1052200082B00446036813F0010F3BD0B44B5B68B7
:1052300003F00C03042B1ED0B14B5B6803F00C038E
:10524000082B13D06368B3F5803F68D0002B40F083
:10525000928003F1804303F504331A6822F480320C
:105260001A601A6822F480221A605DE0A44B5B6821
:1052700013F4803FE6D04FF4003393FAA3F3A04B2E
:1052800019684FF4003393FAA3F3B3FA83F303F0EE
:105290001F03012202FA03F30B4203D06368002BC1
:1052A00000F0BE82236813F0020F00F0C480944B1C
:1052B0005B6813F00C0F00F09C80914B5B6803F06F
:1052C0000C03082B00F08F802369002B00F0F08086
:1052D000012292FAA2F3B3FA83F303F1845303F5A4
:1052E00084139B001A60FEF753FA0546022393FAD3
:1052F000A3F3834B1968022393FAA3F3B3FA83F35E
:1053000003F01F03012202FA03F30B4240F0C280B4
:10531000FEF73EFA401B0228E8D9032089E2784ACA
:10532000136843F480331360754AD36A23F00F0384
:10533000A1680B43D3626368002B36D0FEF728FACE
:1053400005464FF4003393FAA3F36D4B19684FF4FD
:10535000003393FAA3F3B3FA83F303F01F0301229C
:1053600002FA03F30B429DD1FEF712FA401B6428A8
:10537000E7D903205DE2B3F5A02F09D0604B1A688E
:1053800022F480321A601A6822F480221A60CBE775
:1053900003F18043A3F53C331A6842F480221A607B
:1053A0001A6842F480321A60BEE7FEF7F1F905464A
:1053B0004FF4003393FAA3F3514B19684FF40033C1
:1053C00093FAA3F3B3FA83F303F01F03012202FA63
:1053D00003F30B423FF466AFFEF7DAF9401B642893
:1053E000E6D9032025E2464B5B6813F4803F7FF447
:1053F0006BAF022393FAA3F3414B1968022393FA8C
:10540000A3F3B3FA83F303F01F03012202FA03F3B9
:105410000B4203D02369934240F00482384803686A
:1054200023F0F8036169F82292FAA2F2B2FA82F24A
:1054300091400B430360236813F0080F00F08C8049
:10544000A369002B60D0012191FAA1F2B2FA82F295
:105450002C4B13449B001960FEF79AF90546022372
:1054600093FAA3F293FAA3F293FAA3F2244A516AAD
:1054700093FAA3F3B3FA83F303F01F03012202FAB2
:1054800003F30B4268D1FEF783F9401B0228E6D9EB
:105490000320CEE11A48036823F0F8036169F8227B
:1054A00092FAA2F2B2FA82F291400B430360C2E791
:1054B000012393FAA3F3B3FA83F303F1845303F5BF
:1054C00084139B0000221A60FEF762F9054602234E
:1054D00093FAA3F30A4B1968022393FAA3F3B3FADE
:1054E00083F303F01F03012202FA03F30B42A2D05D
:1054F000FEF74EF9401B0228E9D9032099E100BFCD
:105500000010024020819010012292FAA2F2B2FA19
:1055100082F2B74B13449B0000221A60FEF738F961
:105520000546022393FAA3F293FAA3F293FAA3F2A5
:10553000B04A516A93FAA3F3B3FA83F303F01F035B
:10554000012202FA03F30B4206D0FEF721F9401BB9
:105550000228E6D903206CE1236813F0040F00F061
:10556000A980A44BDB6913F0805F20D1A14BDA69DD
:1055700042F08052DA61DB6903F080530193019BB2
:1055800001259D4B1B6813F4807F12D0E368012B2B
:1055900023D073BB03F1804303F504331A6A22F06E
:1055A00001021A621A6A22F004021A621AE0002545
:1055B000E7E7914A136843F480731360FEF7E8F855
:1055C00006468D4B1B6813F4807FDFD1FEF7E0F8B1
:1055D000801B6428F5D903202BE1864A136A43F027
:1055E00001031362E368002B3CD0FEF7D1F80646B6
:1055F0002EE0052B09D07F4B1A6A22F001021A62B5
:105600001A6A22F004021A62ECE77A4B1A6A42F034
:1056100004021A621A6A42F001021A62E2E70223E5
:1056200093FAA3F3734B596A022393FAA3F3B3FAE1
:1056300083F303F01F03012202FA03F3194238D166
:10564000FEF7A6F8801B41F28833984200F2EC8006
:10565000022393FAA3F293FAA3F3002BDFD0654B56
:10566000196AE1E7FEF794F8064618E0022393FA78
:10567000A3F3604B596A022393FAA3F3B3FA83F3BB
:1056800003F01F03012202FA03F3194211D0FEF7BF
:105690007FF8801B41F28833984200F2C7800223D2
:1056A00093FAA3F293FAA3F3002BDFD0514B196ABC
:1056B000E1E7B5BBE369002B00F0BA804D4A5268C0
:1056C00002F00C02082A00F09980022B2FD04FF034
:1056D000807393FAA3F3B3FA83F303F1845303F5CE
:1056E00084139B0000221A60FEF752F804464FF024
:1056F000007393FAA3F33F4B19684FF0007393FACA
:10570000A3F3B3FA83F303F01F03012202FA03F3B6
:1057100019426BD0FEF73CF8001B0228E7D90320A2
:1057200087E0344AD36923F08053D361C2E74FF056
:10573000807393FAA3F3B3FA83F303F1845303F56D
:1057400084139B0000221A60FEF722F805464FF0F2
:10575000007393FAA3F3274B19684FF0007393FA81
:10576000A3F3B3FA83F303F01F03012202FA03F356
:10577000194206D0FEF70CF8401B0228E7D9032097
:1057800057E01C494B6823F47413626A206A024391
:1057900013434B604FF0807393FAA3F3B3FA83F390
:1057A00003F1845303F584139B0001221A60FDF773
:1057B000EFFF04464FF0007393FAA3F30D4B196803
:1057C0004FF0007393FAA3F3B3FA83F303F01F03CC
:1057D000012202FA03F3194206D1FDF7D9FF001B9B
:1057E0000228E7D9032024E0002022E0002020E066
:1057F000208190100010024000700040012B1AD050
:10580000104B5B6803F48031226A914215D103F496
:105810007013626A934212D100200AE0012070479F
:10582000012006E0012004E0032002E0032000E064
:10583000002002B070BD0120FBE70120F9E7012044
:10584000F7E700BF00100240164B5B6803F00C0244
:10585000082A01D01448704703F470114FF47012F5
:1058600092FAA2F2B2FA82F221FA02F20F49885CAD
:105870000C4AD26A02F00F020F2191FAA1F1B1FA9B
:1058800081F1CA400A498A5C13F4803F05D0064B77
:10589000B3FBF2F303FB00F07047064B03FB00F091
:1058A000704700BF0010024000127A002C48010827
:1058B0001C48010800093D00002800F0BE8070B5BA
:1058C0000D460446614B1B6803F007038B420BD265
:1058D0005E4A136823F007030B431360136803F059
:1058E00007038B4240F0AB80236813F0020F06D011
:1058F000574A536823F0F003A1680B4353602368B1
:1059000013F0010F5AD06368012B2DD0022B40D029
:10591000022292FAA2F24E4A1068022292FAA2F2EF
:10592000B2FA82F202F01F02012101FA02F21042E1
:1059300000F0878046494A6822F0030213434B6017
:10594000FDF726FF0646424B5B6803F00C036268D6
:10595000B3EB820F32D0FDF71BFF801B41F288337F
:105960009842F0D9032067E04FF4003292FAA2F295
:10597000374A10684FF4003292FAA2F2B2FA82F279
:1059800002F01F02012101FA02F20242D2D10120EB
:1059900052E04FF0007292FAA2F22D4A10684FF0D6
:1059A000007292FAA2F2B2FA82F202F01F02012110
:1059B00001FA02F21042BDD101203DE0234B1B68E9
:1059C00003F00703AB420AD9204A136823F0070308
:1059D0002B431360136803F00703AB4233D12368F2
:1059E00013F0040F06D01A4A536823F4E063E16809
:1059F0000B435360236813F0080F07D0144A536811
:105A000023F46053216943EAC1035360FFF71CFF8D
:105A10000F4B5B6803F0F003F02292FAA2F2B2FAA5
:105A200082F2D3400B4AD35CD8400B4B18600B4B2F
:105A30001868FDF769FE002070BD01207047012045
:105A4000FAE70120F8E70120F6E700BF0020024056
:105A5000001002400C480108140000201C02002025
:105A6000F0B583B00446036813F4803F48D0914BEF
:105A7000DB6913F0805F40F0D5808E4BDA6942F02D
:105A80008052DA61DB6903F080530193019B0125A9
:105A9000894B1B6813F4807F00F0C680854B1B6A1E
:105AA00013F4407322D0626802F440729A421DD00F
:105AB0008048016A21F440764FF4803393FAA3F2D0
:105AC000B2FA82F27D4F3A4492004FF0010CC2F8D4
:105AD00000C093FAA3F3B3FA83F33B449B00002284
:105AE0001A60066211F0010F40F0B380714A136A28
:105AF00023F4407361680B431362002D40F0D080A3
:105B0000236813F0010F06D06A4A136B23F00303D6
