:020000040800F2
:1000000000A00020D12E0008D52B0008D72B000817
:10001000D92B0008DB2B0008DD2B000800000000B6
:10002000000000000000000000000000DF2B0008BE
:10003000E12B000800000000E32B0008E52B00087E
:10004000212F0008212F0008212F0008212F000850
:10005000212F0008212F0008212F0008212F000840
:10006000212F0008212F0008212F0008ED2B000868
:10007000212F0008212F0008212F0008212F000820
:10008000212F0008212F0008212F0008212F000810
:10009000212F0008212F0008212F0008212F000800
:1000A000212F0008FD2B0008212F0008212F000818
:1000B000212F0008212F0008212F0008212F0008E0
:1000C000212F0008212F0008212F0008212F0008D0
:1000D000212F0008212F0008212F00081D2C0008C7
:1000E000212F0008212F0008212F0008212F0008B0
:1000F000212F0008212F0008212F0008212F0008A0
:10010000000000000000000000000000212F000897
:10011000212F0008212F0008212F0008212F00087F
:10012000212F00080D2C0008212F0008212F000886
:10013000212F0008212F000800000000000000000F
:10014000212F0008212F0008212F000800000000A7
:10015000000000000000000000000000000000009F
:100160000000000000000000212F0008212F0008DF
:10017000212F000800000000000000000000000027
:0801800000000000212F00081F
:1001C00081F0004102E000BF83F0004330B54FEA08
:1001D00041044FEA430594EA050F08BF90EA020F75
:1001E0001FBF54EA000C55EA020C7FEA645C7FEA08
:1001F000655C00F0E2804FEA5454D4EB5555B8BF2B
:100200006D420CDD2C4480EA020281EA030382EA9B
:10021000000083EA010180EA020281EA0303362D2D
:1002200088BF30BD11F0004F4FEA01314FF4801C00
:100230004CEA113102D0404261EB410113F0004F12
:100240004FEA03334CEA133302D0524263EB4303C9
:1002500094EA050F00F0A780A4F10104D5F1200E67
:100260000DDB02FA0EFC22FA05F2801841F10001C2
:1002700003FA0EF2801843FA05F359410EE0A5F196
:1002800020050EF1200E012A03FA0EFC28BF4CF0C7
:10029000020C43FA05F3C01851EBE37101F000457D
:1002A00007D54FF0000EDCF1000C7EEB00006EEB8A
:1002B0000101B1F5801F1BD3B1F5001F0CD3490814
:1002C0005FEA30004FEA3C0C04F101044FEA44526B
:1002D00012F5800F80F09A80BCF1004F08BF5FEAF2
:1002E000500C50F1000041EB045141EA050130BDD2
:1002F0005FEA4C0C404141EB0101013C28BFB1F5E4
:10030000801FE9D291F0000F04BF01460020B1FA2E
:1003100081F308BF2033A3F10B03B3F120020CDA01
:100320000C3208DD02F1140CC2F10C0201FA0CF0DF
:1003300021FA02F10CE002F11402D8BFC2F1200C44
:1003400001FA02F120FA0CFCDCBF41EA0C019040FA
:10035000E41AA2BF01EB0451294330BD6FEA040443
:100360001F3C1CDA0C340EDC04F11404C4F120022E
:1003700020FA04F001FA02F340EA030021FA04F340
:1003800045EA030130BDC4F10C04C4F1200220FA97
:1003900002F001FA04F340EA0300294630BD21FAD5
:1003A00004F0294630BD94F0000F83F4801306BF9B
:1003B00081F480110134013D4EE77FEA645C18BF8F
:1003C0007FEA655C29D094EA050F08BF90EA020F26
:1003D00005D054EA000C04BF1946104630BD91EA1E
:1003E000030F1EBF0021002030BD5FEA545C05D121
:1003F0004000494128BF41F0004130BD14F5800460
:100400003CBF01F5801130BD01F0004545F0FE41D3
:1004100041F470014FF0000030BD7FEA645C1ABF08
:10042000194610467FEA655C1CBF0B46024650EA3F
:10043000013406BF52EA033591EA030F41F400216B
:1004400030BD00BF90F0000F04BF0021704730B5F1
:100450004FF4806404F132044FF000054FF00001C6
:1004600050E700BF90F0000F04BF0021704730B587
:100470004FF4806404F1320410F0004548BF40425C
:100480004FF000013EE700BF42004FEAE2014FEAB1
:1004900031014FEA02701FBF12F07F4393F07F4F8C
:1004A00081F06051704732F07F4208BF704793F08F
:1004B0007F4F04BF41F40021704730B54FF46074A2
:1004C00001F0004521F000411CE700BF50EA0102A5
:1004D00008BF704730B54FF000050AE050EA01024E
:1004E00008BF704730B511F0004502D5404261EBBE
:1004F00041014FF4806404F132045FEA915C3FF4FF
:10050000D8AE4FF003025FEADC0C18BF03325FEA9B
:10051000DC0C18BF033202EBDC02C2F1200300FA4C
:1005200003FC20FA02F001FA03FE40EA0E0021FA71
:1005300002F11444BDE600BF70B54FF0FF0C4CF45F
:10054000E06C1CEA11541DBF1CEA135594EA0C0F11
:1005500095EA0C0F00F0DEF82C4481EA030621EA4C
:100560004C5123EA4C5350EA013518BF52EA033587
:1005700041F4801143F4801338D0A0FB02CE4FF039
:100580000005E1FB02E506F00042E0FB03E54FF069
:100590000006E1FB03569CF0000F18BF4EF0010E61
:1005A000A4F1FF04B6F5007F64F5407404D25FEA5D
:1005B0004E0E6D4146EB060642EAC62141EA555110
:1005C0004FEAC52040EA5E504FEACE2EB4F1FD0C52
:1005D00088BFBCF5E06F1ED8BEF1004F08BF5FEAD0
:1005E000500E50F1000041EB045170BD06F0004682
:1005F00046EA010140EA020081EA0301B4EB5C042F
:10060000C2BFD4EB0C0541EA045170BD41F4801126
:100610004FF0000E013C00F3AB8014F1360FDEBF4B
:10062000002001F0004170BDC4F10004203C35DA27
:100630000C341BDC04F11404C4F1200500FA05F3AA
:1006400020FA04F001FA05F240EA020001F000424B
:1006500021F0004110EBD37021FA04F642EB0601C1
:100660005EEA430E08BF20EAD37070BDC4F10C04EB
:10067000C4F1200500FA04F320FA05F001FA04F2AF
:1006800040EA020001F0004110EBD37041F100019B
:100690005EEA430E08BF20EAD37070BDC4F12005A6
:1006A00000FA05F24EEA020E20FA04F301FA05F20E
:1006B00043EA020321FA04F001F0004121FA04F2B6
:1006C00020EA020000EBD3705EEA430E08BF20EA86
:1006D000D37070BD94F0000F0FD101F000464000C0
:1006E00041EB010111F4801F08BF013CF7D041EA42
:1006F000060195F0000F18BF704703F00046520046
:1007000043EB030313F4801F08BF013DF7D043EA16
:100710000603704794EA0C0F0CEA135518BF95EACC
:100720000C0F0CD050EA410618BF52EA4306D1D153
:1007300081EA030101F000414FF0000070BD50EA72
:10074000410606BF1046194652EA430619D094EAFC
:100750000C0F02D150EA013613D195EA0C0F05D1E6
:1007600052EA03361CBF104619460AD181EA03013A
:1007700001F0004141F0FE4141F470014FF00000F2
:1007800070BD41F0FE4141F4780170BD70B54FF08D
:10079000FF0C4CF4E06C1CEA11541DBF1CEA13550D
:1007A00094EA0C0F95EA0C0F00F0A7F8A4EB0504EF
:1007B00081EA030E52EA03354FEA013100F08880E6
:1007C0004FEA03334FF0805545EA131343EA1263AF
:1007D0004FEA022245EA111545EA10654FEA002664
:1007E0000EF000419D4208BF964244F1FD0404F51D
:1007F000407402D25B084FEA3202B61A65EB030579
:100800005B084FEA32024FF480104FF4002CB6EB35
:10081000020E75EB030E22BFB61A754640EA0C00B5
:100820005B084FEA3202B6EB020E75EB030E22BFF5
:10083000B61A754640EA5C005B084FEA3202B6EB36
:10084000020E75EB030E22BFB61A754640EA9C00F5
:100850005B084FEA3202B6EB020E75EB030E22BFC5
:10086000B61A754640EADC0055EA060E18D04FEA83
:10087000051545EA16754FEA06164FEAC30343EA23
:1008800052734FEAC2025FEA1C1CC0D111F4801FF0
:100890000BD141EA00014FF000004FF0004CB6E7E9
:1008A00011F4801F04BF01430020B4F1FD0C88BF88
:1008B000BCF5E06F3FF6AFAEB5EB030C04BFB6EB93
:1008C000020C5FEA500C50F1000041EB045170BD86
:1008D0000EF0004E4EEA113114EB5C04C2BFD4EBB3
:1008E0000C0541EA045170BD41F480114FF0000E37
:1008F000013C90E645EA060E8DE60CEA135594EAB3
:100900000C0F08BF95EA0C0F3FF43BAF94EA0C0FB5
:100910000AD150EA01347FF434AF95EA0C0F7FF42A
:1009200025AF104619462CE795EA0C0F06D152EA7E
:1009300003353FF4FDAE1046194622E750EA410662
:1009400018BF52EA43067FF4C5AE50EA41047FF473
:100950000DAF52EA43057FF4EBAE12E74FF0FF3CD8
:1009600006E000BF4FF0010C02E000BF4FF0010CA9
:100970004DF804CD4FEA410C7FEA6C5C4FEA430C22
:1009800018BF7FEA6C5C1BD001B050EA410C0CBF71
:1009900052EA430C91EA030F02BF90EA020F0020D3
:1009A000704710F1000F91EA030F58BF994208BF3A
:1009B00090422CBFD8176FEAE37040F001007047F7
:1009C0004FEA410C7FEA6C5C02D150EA013C07D14E
:1009D0004FEA430C7FEA6C5CD6D152EA033CD3D099
:1009E0005DF8040B704700BF8446104662468C4693
:1009F0001946634600E000BF01B5FFF7B7FF0028C6
:100A000048BF10F1000F01BD4DF808EDFFF7F4FFEE
:100A10000CBF012000205DF808FB00BF4DF808ED79
:100A2000FFF7EAFF34BF012000205DF808FB00BF9C
:100A30004DF808EDFFF7E0FF94BF012000205DF8BE
:100A400008FB00BF4DF808EDFFF7CEFF94BF012073
:100A500000205DF808FB00BF4DF808EDFFF7C4FF6C
:100A600034BF012000205DF808FB00BF4A0011D20E
:100A700012F5001211D20DD56FF47873B3EB6252F8
:100A80000ED44FEAC12343F0004343EA505323FA04
:100A900002F070474FF00000704750EA013002D179
:100AA0004FF0FF3070474FF0000070474FEA4102AF
:100AB000B2F1E04324BFB3F5001CDCF1FE5C0DD9BC
:100AC00001F0004C4FEAC0024CEA5070B2F1004F06
:100AD00040EB830008BF20F00100704711F0804F09
:100AE00021D113F13872BCBF01F00040704741F4CE
:100AF00080114FEA5252C2F11802C2F1200C10FAD2
:100B00000CF320FA02F018BF40F001004FEAC123B5
:100B10004FEAD32303FA0CFC40EA0C0023FA02F359
:100B20004FEA4303CCE77FEA625307D150EA01332F
:100B30001EBF4FF0FE4040F44000704701F00040FF
:100B400040F0FE4040F40000704700BF000000008D
:100B50000000000000000000000000000000000095
:100B600002780B78012A28BF9A4240F0D8806DE9BC
:100B7000044540EA0104CDE902676FF0000C4FEA3A
:100B800044721AB380EA010414F0070F6BD100F02D
:100B9000070420F0070004F0030521F007014FEAE5
:100BA000C505F0E8042314F0040FF1E804670CFA1B
:100BB00005F462EA040266EA04060BD063EA040361
:100BC000624667EA0407664604E000BFF0E80423D3
:100BD000F1E8046782FA4CF582EA0604A4FA8CF480
:100BE0006CBB83FA4CF583EA0705A5FA8CF595B939
:100BF00050E9022351E9026782FA4CF582EA0604C1
:100C0000A4FA8CF483FA4CF583EA0705A5FA8CF56F
:100C10002543DBD09CB92DBAB5FA85F424F007043E
:100C200027FA04F1DDE9026723FA04F303F0FF0079
:100C300001F0FF01FDE80445A0EB0100704724BA74
:100C4000B4FA84F424F0070426FA04F1DDE902671B
:100C500022FA04F202F0FF0001F0FF01FDE8044572
:100C6000A0EB0100704714F0030F3CD110F0030417
:100C700028D150F8082B51F8083B82FA4CF582EA4B
:100C80000305A5FA8CF55DB950F8042C51F8043C25
:100C900082FA4CF582EA0305A5FA8CF5002DE8D01E
:100CA0002DBAB5FA85F424F0070423FA04F122FAE8
:100CB00004F202F0FF0001F0FF01FDE80445A0EBA3
:100CC000010070474FEAC40420F0030050F8082BDD
:100CD00021F0030151F8083B0CFA04F462EA040223
:100CE00063EA0403C9E710F003041DD0A1EB04017B
:100CF00020F00300E40750F8042B06D012D28B78C2
:100D00005FFAA2F4E41A06D12BB1CB785FFAB2F401
:100D1000E41A00D133B920465DF8104B7047A2EBBE
:100D20000300704701F1040150F8042BCC0721F0B7
:100D3000030151F8043B48D824D222F07F4482FAC0
:100D40004CF594EA1325A5FA8CF50AD165B951F84A
:100D5000043B84EA0204B4EB036F0ED150F8042B79
:100D6000EBE74FEA132355E035F07F454DD1087886
:100D7000FDE80445C0F1000070474FEA126203F03D
:100D8000FF0347E002EA1C4482FA4CF594EA13455B
:100D9000A5FA8CF50AD165B951F8043B84EA02043E
:100DA000B4EB034F0CD150F8042BEBE74FEA13439D
:100DB00030E015EA1C4528D10B884FEA124229E0A1
:100DC0004FEA124203EA1C4324E002F0FF0482FAD5
:100DD0004CF594EA1365A5FA8CF50AD165B951F87A
:100DE000043B84EA0204B4EB032F09D150F8042B2E
:100DF000EBE74FEA13630DE015F0FF0F05D10B6829
:100E00004FEA122223F07F4304E04FF00000FDE898
:100E10000445704712BA1BBA82FA4CF482EA030402
:100E2000A4FA8CF5B5FA85F402FA04F203FA04F395
:100E30004FEA1260FDE80445A0EB1360704700BF65
:100E400030B490F800F020F007016FF0000C10F0C3
:100E5000070491F820F040F048804FF000046FF054
:100E60000700D1E9002391F840F000F1080082FA70
:100E70004CF2A4FA8CF283FA4CF3A2FA8CF34BBB3B
:100E8000D1E9022382FA4CF200F10800A4FA8CF2B4
:100E900083FA4CF3A2FA8CF3E3B9D1E9042382FA82
:100EA0004CF200F10800A4FA8CF283FA4CF3A2FA97
:100EB0008CF37BB9D1E9062301F1200182FA4CF2CF
:100EC00000F10800A4FA8CF283FA4CF3A2FA8CF336
:100ED000002BC6D0002A04BF04301A4612BAB2FA58
:100EE00082F200EBD20030BC7047D1E9002304F05D
:100EF0000305C4F100004FEAC50514F0040F91F892
:100F000040F00CFA05F562EA05021CBF63EA05032E
:100F100062464FF00004AAE7000000000000000055
:100F200001F0FF01102A2BDB10F0070F08D010F89A
:100F3000013B013A8B422DD010F0070F42B3F6D19E
:100F4000F0B441EA012141EA014122F007047FF0B7
:100F500000070023F0E80256083C85EA010586EA0E
:100F6000010685FA47F5A3FA87F586FA47F6A5FA4A
:100F700087F68EB9EED1F0BC01F0FF0102F0070256
:100F800032B110F8013B013A83EA010313B1F8D101
:100F90000020704701387047002D06BF35460338E2
:100FA000073815F0010F07D1013015F4807F02BF1B
:100FB000013015F4C03F0130F0BC0138704700BF6C
:100FC000844641EA000313F003036DD1403A41D354
:100FD00051F8043B40F8043B51F8043B40F8043B13
:100FE00051F8043B40F8043B51F8043B40F8043B03
:100FF00051F8043B40F8043B51F8043B40F8043BF3
:1010000051F8043B40F8043B51F8043B40F8043BE2
:1010100051F8043B40F8043B51F8043B40F8043BD2
:1010200051F8043B40F8043B51F8043B40F8043BC2
:1010300051F8043B40F8043B51F8043B40F8043BB2
:1010400051F8043B40F8043B51F8043B40F8043BA2
:10105000403ABDD2303211D351F8043B40F8043B42
:1010600051F8043B40F8043B51F8043B40F8043B82
:1010700051F8043B40F8043B103AEDD20C3205D352
:1010800051F8043B40F8043B043AF9D2043208D04A
:10109000D2071CBF11F8013B00F8013B01D30B88BC
:1010A00003806046704700BF082A13D38B078DD09A
:1010B00010F003038AD0C3F10403D21ADB071CBF6C
:1010C00011F8013B00F8013B80D331F8023B20F8D6
:1010D000023B7BE7043AD9D3013A11F8013B00F80F
:1010E000013BF9D20B7803704B7843708B78837097
:1010F000604670474FEA410C7FEA6C5C02D150EACF
:10110000013C0AD14FEA430C7FEA6C5C02D152EAFF
:10111000033C02D14FF0000070474FF001007047D0
:101120004FEA410212F5001215D211D56FF478730F
:10113000B3EB625212D94FEAC12343F0004343EAB2
:10114000505311F0004F23FA02F018BF404270478D
:101150004FF00000704750EA013005D111F0004017
:1011600008BF6FF0004070474FF00000704700BFAD
:1011700053B94AB9002908BF00281CBF4FF0FF31FE
:101180004FF0FF3000F00CB8ADF1080C6DE904CE63
:1011900012F0CEFBDDF804E0DDE9022304B0704775
:1011A000704700BF10B5054C237833B9044B13B119
:1011B0000448AFF300800123237010BDCC0600204B
:1011C000000000007C4B010808B5034B1BB103492C
:1011D0000348AFF3008008BD00000000D0060020E7
:1011E0007C4B010870EEC00A90ED047AD0ED017AD4
:1011F00067EEA07AD0ED026A67EEA67A77EE277ADC
:10120000C0ED047A90ED037AF4EEC77AF1EE10FAAD
:101210000ADD80ED047AD0ED007A67EEA07A90EDD9
:10122000040A37EE800A7047B1EE477AF4EEC77AC7
:10123000F1EE10FAEFD580ED047AECE720EE200A0B
:10124000F7EE007A77EEE00AD0ED007A60EEA70ABA
:1012500030EE200A80ED000A7047000008B52DED41
:10126000028B07EE900AF8EE677A9FED137A67EE2D
:10127000877ADFED126A87EEA67AF1EE046AC6EE8F
:10128000877AB7EE008A77EEC87A67EEA07A87EEA3
:10129000800A12F0ABFC9FED0A7AC0EE077A9FED50
:1012A000097A77EE877A88EE270ADFED077A30EE43
:1012B000670ABDEC028B08BD3333534000F07F4515
:1012C00000C05A4562EB5B3B0080884338B52DED8A
:1012D000028B0446334D05222946806902F0F8F955
:1012E0000A21A06902F044F9DFED2F8A9FED2F8AD1
:1012F000F0EE680AB0EE480A2888FFF7AFFFDFED8E
:101300002C0A04F11000FFF799FFF0EE680AB0EE26
:10131000480A2888FFF7A2FF84ED040A6B8800EED4
:10132000103AB8EE400A9FED237AAB8807EE903A68
:10133000F8EE677AC7EE878A9FED1F8AF0EE480ABB
:1013400080EE070A201DFFF779FFF0EE480AB0EEA5
:10135000680A04F10800FFF771FFB5F90630A3F53C
:10136000F07307EE903AF8EEE77A9FED147A67EEA5
:10137000877A134BC3ED007A93ED000ADFED110A73
:101380002046FFF75BFF2B8907EE903AF8EE677A6D
:101390009FED0D7A67EE877AC4ED037ABDEC028B80
:1013A00038BD00BFEC06002000007A4400401C4617
:1013B0006F12833A00F07F450AD7233C2549123E3D
:1013C000E80600200AD7A33B473C113C10B5044671
:1013D000C06902F00DF80A21E06902F0C9F8E0697D
:1013E00002F038FADFED060A9FED060A80B2FFF739
:1013F00035FFDFED050A04F11400FFF71FFF10BDF4
:1014000000002A4400409C456F12833AF0B52DED50
:10141000028B8FB004468C49FFF7A2FB48B38B497F
:101420002046FFF79DFB58B389492046FFF798FBFC
:10143000002849D087492046FFF792FB00284DD06D
:1014400085492046FFF78CFB00286AD1834B9B6CB3
:101450009E6F586FFFF718F804460D463046FFF7A9
:1014600013F8CDE9000122462B467D4805F024FC07
:1014700002E07C4805F092FC0FB0BDEC028BF0BDA1
:10148000764B986C00F084FB10EE100A10EE904A38
:1014900011EE105A8DED050ACDED060A8DED071AF5
:1014A000FEF7F2FF06460F462846FEF7EDFFCDE9B0
:1014B00002012046FEF7E8FFCDE9000132463B4637
:1014C000694805F0F9FBD7E7644B9B6C198B5A8B85
:1014D00092B289B2654805F0EFFBCDE75F4B986C9F
:1014E00000F056FB8DED0B0ACDED0C0A8DED0D1ABB
:1014F00001F04CFC10EE100A10EE904A8DED050A3A
:10150000CDED060AFEF7C0FF06460F462046FEF761
:10151000BBFFCDE9000132463B46554805F0CCFB08
:10152000AAE709AB0AAA5349204605F03FFC022866
:1015300023D009AB0AAA5049204605F037FC0228FF
:1015400048D009AB00930AAB0DF123024B4920466A
:1015500005F02CFC03284ED049492046FFF700FB3C
:1015600000286DD13D4B9B6C9868FEF78DFF0246BD
:101570000B46444805F0A0FB7EE79DED090A01F00B
:10158000E6FB8DED050ACDED060A9DED0A8A20EEFB
:10159000080A8DED050A28EE208A8DED068A10EEE8
:1015A000100AFEF771FF04460D4618EE100AFEF70A
:1015B0006BFFCDE9000122462B46334805F07CFB4A
:1015C0009DED050ADDED060A0021244B986C00F024
:1015D0005BFC51E70A9B0593099B06932B4805F09A
:1015E000DDFB9DED050ADDED060A01211B4B986C24
:1015F00000F04AFC40E79DF82310612905D06429DA
:101600000FD0234805F058FB36E7144B9B6C0A9922
:10161000D964099A1A6519665A661C4805F0BEFB1A
:101620002AE70E4B9A6C0A995162986C099A826269
:10163000986C81639B6CDA63144805F0AFFB1BE781
:10164000144805F0ABFB17E7984B0108A84B0108BD
:10165000C44B0108DC4B0108F84B0108F8060020D8
:10166000004C0108A04B0108B04B0108D04B010809
:10167000E44B0108144C01082C4C01083C4C0108B7
:10168000604C01086C4C0108204C0108384C0108E2
:10169000484C0108744C010808B50B4A92F84430D4
:1016A0000133DBB282F844303F2B03D913460022CA
:1016B00083F84420044B93F84410181D0122014480
:1016C000186805F0E1F908BDF806002008B5054BDB
:1016D0001860002283F8442099640122191D05F046
:1016E000D3F908BDF806002038B5144C94F84430FE
:1016F000211D01221944206805F0C6F994F84430F0
:1017000023B1013B23441B790A2B00D038BD20684C
:1017100004F0F4FD94F84430013B234400221A7194
:1017200084F84420251D2846FFF770FE94F84410E5
:1017300001222944206805F0A7F9E7E7F806002010
:1017400000230AE09A1D00EB82020021116003F1E0
:10175000080200EB820251600133022BF2DD704778
:10176000002343638364C36503677047F0B589B0A2
:10177000044660230193002503950595049507957C
:10178000069501AF2A463946006804F0BFFA0422E4
:101790003946206804F0BAFA26460822394656F837
:1017A000180B04F0B3FA02223146606901F090FF91
:1017B000606901F01DFE2C4BC4F8943004F1A406BE
:1017C00030222946304605F067FB4FF07E55C4F8BD
:1017D000A450264BC4F8A830254BC4F8AC30254B98
:1017E000C4F8B030244AC4F8B420C4F8B83004F1C6
:1017F000D40CB646BEE80F00ACE80F00BEE80F0000
:10180000ACE80F009EE80F008CE80F003046FFF7B1
:1018100097FF04F1D400FFF793FF65621749A162B7
:10182000174B93ED007AB8EE477ADFED166AC6EEF5
:10183000877AC4ED0B7A00236363134A2263A5639E
:10184000E163C4ED107AA3646264E3642565C4EDCA
:10185000157AE365A26523666566C4ED1A7A236787
:10186000E26609B0F0BD00BF0AD7233C2313EDBFE9
:10187000E1C25C3FF626273BE026A73B0000A041E3
:101880000C00002000401C46000020410000000029
:10189000D0B52DED028B82B00446002202214FF01C
:1018A000904002F09FFD012202214FF0904002F093
:1018B00099FD012204214FF0904002F093FD012296
:1018C00011464FF0904002F08DFD002201214FF0B3
:1018D000904002F087FD0A23012201A9206803F04D
:1018E00012FE9DF805209DF8043043EA02231B09EF
:1018F00008EE103AB8EE488ADFED4B7A28EE278AD8
:1019000038EE088ADFED497A28EE278A484BD3ED76
:10191000007A38EE278A84ED018A464BD3ED008A9F
:1019200078EE688A18EE900AFEF7AEFD06460F467E
:1019300039A3D3E90023FFF78FF800285DD0DFED4E
:101940003E7A78EEE78A3D4BD3ED007A77EEA87ABF
:10195000C3ED007A374B83ED008A394B5B68394A17
:1019600012689B1A384A93420FD3344BD3ED007A56
:10197000B2EE047A67EE877A344AC2ED007A00222A
:101980001A602F4B5A682F4B1A60002204214FF027
:10199000904002F027FD012211464FF0904002F0E6
:1019A00021FD002201214FF0904002F01BFD0A238F
:1019B000012201A9206803F0A6FD9DF805209DF8ED
:1019C000043043EA022343F30B13C3EBC30307EED4
:1019D000903AF8EEE77AC4ED027A012211464FF010
:1019E000904002F0FFFC012202214FF0904002F0F3
:1019F000F9FC02B0BDEC028BD0BD09A3D3E90023F2
:101A000030463946FFF70AF800289CD0DFED0A7A05
:101A100078EEA78A97E700BF182D4454FB210940B0
:101A2000182D4454FB2109C000008039DB0F4940C8
:101A30000800002070070020DB0FC9406C07002061
:101A4000001000E06807002000A861006407002083
:101A500010B5074C01224021204602F0C3FC0120B2
:101A600001F0AAFA00224021204602F0BBFC10BD82
:101A70000010004800000000F8B5044610EE100AFF
:101A800010EE906A11EE105AFEF7FEFC0022204B79
:101A9000FEF752FD00221E4BFEF798FB1AA3D3E976
:101AA0000023FEF749FD23681F68FEF7DFFF786318
:101AB0003046FEF7E9FC0022154BFEF73DFD002203
:101AC000134BFEF783FB10A3D3E90023FEF734FD8D
:101AD00023681E68FEF7CAFFB0632846FEF7D4FCF1
:101AE00000220B4BFEF728FD0022094BFEF76EFB90
:101AF00005A3D3E90023FEF71FFD23681C68FEF74A
:101B0000B5FFE063F8BD00BF000000000088B340EF
:101B10000000E03F38B590F87C3073BB05461B4BA6
:101B200000241C605C60012001F046FA0EE02A8B64
:101B3000164B196811FA82F21A606A8B596811FA09
:101B400082F25A60012001F037FA0134FF2CEEDDF9
:101B50000E490B681B0A0B604A68120A4A60A3F21E
:101B6000DC51B1F57A7F0BD8A2F2DC51B1F57A7F66
:101B700009D8AB83EA83002038BD4FF0FF30FBE784
:101B80004FF0FF30F8E74FF0FF30F5E74407002053
:101B90008AB0438B9BB2C28B9B1A07EE103AB8EE09
:101BA000C77ADFED136A27EE267A8DED067A038B6E
:101BB0009BB2828B9B1A07EE903AF8EEE77A67EEBB
:101BC000A67ACDED057AF1EE677A77EEC77ACDED9C
:101BD000047A04AB93E807000AAB03E907009DED24
:101BE000070ADDED080A9DED091A0AB0704700BF2B
:101BF0003333933F30B52DED028B8DB0814B5D6853
:101C0000814A13680133136013F0010F03D00DB044
:101C1000BDEC028B30BD04460430FFF739FE94ED75
:101C2000020A01F094F88DED0A0ACDED0B0A204668
:101C3000FFF7AEFF754B83ED000AC3ED010A83ED9C
:101C4000021A93ED000AD3ED010A93ED021A01F096
:101C50009DF88DED080ACDED090A9DED0A1ADDED1E
:101C60000B1A01F0EBF88DED060ACDED070A94EDA5
:101C7000257A27EE000AF7EE007A77EEC76A94ED30
:101C80001D6A26EE866A30EE060A84ED1D0A27EEEE
:101C9000207A94ED1E6A66EE866A37EE267A84ED27
:101CA0001E7AD4ED200A5A4B93ED007A20EE877A03
:101CB000D3ED006A77EEE66A94ED226A66EE866AF4
:101CC00037EE267A84ED227AD4ED216A93ED006A0C
:101CD00066EE866A93ED006A77EEC67A94ED236A23
:101CE00067EE867A76EEA77AC4ED237A94F8903080
:101CF000012B0DD0002B50D0424B5B685B1B454A3B
:101D00001360454A11688B4238BF0B4613607EE76B
:101D1000F0EE470A04F12400FFF764FAB0EE408ABF
:101D2000D4ED230A94ED1E0A04F13800FFF75AFAA5
:101D3000D4ED037A394B93ED007A67EE877A70EE33
:101D4000277A84ED278AC4ED287A94ED087A88EE04
:101D5000070A8DED010AC7EE870ACDED020AB7EE3C
:101D6000001A00F0BDFF8DED010ACDED020A9DEDD8
:101D70000A1ADDED0B1A01F086F88DED010ACDEDA2
:101D8000020A01F02FF88DED030ACDED040A8DED66
:101D9000051A2046FFF770FEAEE79DED080A04F134
:101DA0004C00FFF71FFAB0EE408AD4ED210A9DEDFA
:101DB000090A04F16000FFF715FAF0EE407A84EDAD
:101DC000278A84ED280A94ED087A88EE070A8DEDBB
:101DD000010AC7EE870ACDED020AB7EE001A00F03D
:101DE0007FFF8DED010ACDED020A00F0FBFF8DEDC6
:101DF000030ACDED040A8DED051A2046FFF73CFEDF
:101E00007AE700BF001000E06007002054070020C0
:101E100004000020500700204C0700200000002094
:101E200038B504460D46E9B1006803F089FD00218C
:101E3000206804F017F80021206804F02DF904212F
:101E4000206804F00FF80421206804F025F9082127
:101E5000206804F007F80821206804F01DF984F8D0
:101E60007C5038BDFFF77CFC206803F055FD002155
:101E7000206804F0A1F80421206804F09DF80821EE
:101E8000206804F099F8EAE782B08DED000ACDED04
:101E9000010A80F8901000F1800302AA12E9030001
:101EA00083E8030002B0704708B5D0ED417AB3EE85
:101EB0000E7AF4EEC77AF1EE10FA07D49FED087AA5
:101EC000F4EEC77AF1EE10FA04DC08BD0021FFF74A
:101ED000A7FFFAE7C0ED087A0121FFF7A1FFF4E7B9
:101EE00000000C4238B5044600F582752846FFF71D
:101EF000EDF92846FFF76AFA2046FFF7D5FF38BD0F
:101F00002DE9F04F8DB007AD002407940894099493
:101F10000A940B94554B5A6942F400125A615A695B
:101F200002F400120192019A5A6942F400225A61A5
:101F30005A6902F400220292029A5A6942F480021B
:101F40005A615A6902F480020392039A5A6942F470
:101F500000325A615A6902F400320492049A5A69B2
:101F600042F480225A615A6902F480220592059A4D
:101F70005A6942F480125A615B6903F48013069334
:101F8000069BDFF8F48022464021404602F02AFA00
:101F9000224648F217714FF0904002F023FADFF822
:101FA000DCB0224641F61061584602F01BFADFF819
:101FB000D0A022464021504602F014FA22460121C8
:101FC0002B4802F00FFA202307930894099429461E
:101FD000404602F023F94FF04009CDF81C9001274C
:101FE0000897099403260A962946404602F016F9F6
:101FF00040F217730793089709940A9629464FF001
:10200000904002F00BF941F610630793089709948A
:102010000A962946584602F001F94FF440530793B7
:10202000089409942946134802F0F8F8CDF81C905A
:10203000089709940A962946504602F0EFF84FF4A3
:10204000004307931123089309940A9629464FF0F9
:10205000904002F0E3F80797089709940A962946FA
:10206000034802F0DBF80DB0BDE8F08F001002402D
:10207000000C004800040048001000480008004818
:102080000014004800B583B0124B5A6942F00102B7
:102090005A615A6902F001020092009A5A6942F0AC
:1020A00002025A615B6903F002030193019B002263
:1020B00011460B2001F042FF0B2001F04FFF0022E0
:1020C0001146392001F03AFF392001F047FF03B0F3
:1020D0005DF804FB0010024008B50268034B9A4209
:1020E00000D008BD0248FFF785FDFAE7002C01404B
:1020F000A80A0020013801280AD810B514464FF468
:102100007A7392B2054804F0FDFB20B9204610BD59
:102110004FF0FF3070470020F9E700BF8007002034
:1021200008B572B600210248FFF77AFEFEE700BF4D
:10213000A80A002008B50B480B4B0360102343602E
:1021400000238360C3600361436103764376837633
:10215000C3760377437701F005FE00B908BDFFF7AA
:10216000DFFF00BFB80800200064004008B5114838
:10217000114B03604FF4827343604FF480638360BC
:102180004FF47063C36002230361002343614FF483
:10219000007282610822C261036243628362072186
:1021A000C1620363426302F0C5FF00B908BDFFF7D7
:1021B000B7FF00BF540800200030014010B596B0B2
:1021C00000241394149415940C940D940E940F946D
:1021D0001094119412942C22214601A804F05CFE64
:1021E0002F48304B03604460846041F28833C36001
:1021F00004614461846103F013FD002843D100238E
:1022000013931493159313A9254803F0BBFF0028DB
:102210003BD160230C9364230D9300220E9208237C
:102220000F931092119212920CA91D4803F06EFDAB
:1022300000282CD100230D9304220CA9184803F088
:1022400065FD30BB08220CA9154803F05FFD10BBEB
:1022500000230193029303936422049205934FF4A5
:1022600000520692079308934FF0007209920A9366
:102270000B9301A90A4803F0CDFF70B9084800F09C
:1022800051FC16B010BDFFF74BFFFFF749FFFFF7FA
:1022900047FFFFF745FFFFF743FFFFF741FF00BF91
:1022A00008080020002C014000B58BB000230793E4
:1022B0000893099301930293039304930593069360
:1022C00021484FF0A0420260436083600122026116
:1022D000427680F82030C3628262C3600221C1610D
:1022E00080F83020082242610376436300F038FF13
:1022F00008BB0023079307A9134801F085FCE0B948
:1023000006230193012302930493072303930023DD
:102310000593069301A90C4801F0A0FA78B90823A7
:1023200001930223029301A9074801F097FA40B9EB
:102330000BB05DF804FBFFF7F3FEFFF7F1FEFFF7CC
:10234000EFFEFFF7EDFE00BF580A002000B58BB08E
:102350000023079308930993019302930393049333
:10236000059306931A481B4A026043608360036129
:10237000437680F82030C36201228262C360C2616A
:1023800080F83030042242610376436300F0E8FEB7
:10239000B8B90023079307A90D4801F035FC90B99F
:1023A00006230193012302930023049303930593CF
:1023B000069301A9064801F051FA30B90BB05DF857
:1023C00004FBFFF7ADFEFFF7ABFEFFF7A9FE00BF72
:1023D000B80900200004005000B587B00023009326
:1023E000019302930393049305932D482D4A0260B1
:1023F0004360836001220261437680F82030C3622B
:102400008262C3600522C26180F8303008224261D6
:102410000376436300F0A4FE002834D10123009327
:1024200001930023039307220292049305936946C4
:102430001B4801F013FA40BB0423009302230193CD
:102440006946174801F00AFA08BB052300930323E5
:1024500001936946124801F001FAD0B90C230093A8
:102460000423019369460E4801F0F8F998B90D2349
:102470000093052301936946094801F0EFF960B91B
:1024800007B05DF804FBFFF74BFEFFF749FEFFF7CF
:1024900047FEFFF745FEFFF743FEFFF741FE00BF93
:1024A000680900200005005000B587B000230093A4
:1024B000019302930393049305931648164A02600E
:1024C000436083600361437680F82030C362012259
:1024D0008262C360C26180F83030042242610376B8
:1024E000436300F03DFE80B9042300930123019370
:1024F000002303930293049305936946054801F072
:10250000ADF920B907B05DF804FBFFF709FEFFF74E
:1025100007FE00BF080A00200001005010B59EB061
:1025200014AC28220021204604F0B6FC00210F91B3
:1025300010911191129113913C22684604F0ACFC69
:102540000223149301221892102219921B934FF424
:1025500060131D93204601F04BFFF8B90F230F9332
:1025600002211091002311934FF480621292139371
:102570000FA802F08DFA98B941F28413009300235A
:1025800004934FF4807209924FF400520A920C9314
:10259000684602F051FB28B91EB010BDFFF7C0FD20
:1025A000FFF7BEFDFFF7BCFD30B587B000F0E0FCE3
:1025B000FFF7B4FF534A136843F001031360FFF7BA
:1025C0009FFCFFF75FFDFFF7B5FDFFF7CFFDFFF7BE
:1025D000F5FDFFF769FEFFF7B9FEFFF7FDFEFFF718
:1025E00063FF00224FF400414FF0904001F0FAFEEB
:1025F000454804F0D3FB454C21464548FFF766F8B3
:10260000FFF726FA01221021424801F0EBFE424B6F
:10261000C4F81C31414BC4F82031414B6360414B3D
:102620002360414B6361002584F87C502046FFF70E
:102630009DF829462046FFF7F3FB2046FFF76AFA8C
:1026400048B13A4804F0AAFB3048394B03620121F3
:10265000FFF7E6FB1AE02D4BDA8B998B354804F037
:102660002BFBF1E7294BD3ED037AF5EEC07AF1EEBF
:1026700010FA3AD49FED300A8DED040AF9EE040AFF
:10268000CDED050A01212148FFF7FEFB1F48FFF7AA
:1026900029FCFFF729F8294B1B68002BF6D0284BA3
:1026A000D3ED007AF5EE407AF1EE10FAEED000F0BC
:1026B0007DFC224B1A68B0FBF2F102FB11001B6893
:1026C000204AA2FB0323B0EB930FCBD21E4B93ED1A
:1026D000000A8DED000A1A4BD3ED000ACDED010A78
:1026E00001210A48FFF7D0FBD0E7DFED130ACDED5B
:1026F000020ACDED030AB0EE600A01211846FFF789
:10270000C3FBC3E7001000E0884C0108A80A0020C2
:10271000800700200008004868090020080A0020FF
:102720005408002008080020580A0020984C01088E
:1027300000002042B44C0108000000007C0700208B
:1027400078070020CDCCCCCC7407002082B00A4B97
:102750009A6942F001029A619A6902F001020092BC
:10276000009ADA6942F08052DA61DB6903F0805343
:102770000193019B02B0704700100240F0B593B086
:10278000044600230D930E930F9310931193036847
:10279000B3F1A04F64D0914A934200F0A280904AD6
:1027A000934200F0E7808F4A934240F08A808E4A3D
:1027B000136801331360012B00F001818B4B5A69C0
:1027C00042F400125A615A6902F400120A920A9AFB
:1027D0005A6942F480225A615A6902F480220B92AB
:1027E0000B9A5A6942F480125A615B6903F48013B0
:1027F0000C930C9B4FF480430D9303270E970DAE63
:1028000031467B4801F00AFD4FF440430D930E978B
:1028100000250F953146774801F000FD4FF44073D5
:102820000D930E970F953146734801F0F7FC7348EE
:10283000734B0360456085608023C3604FF48073F1
:1028400003614FF48063436120238361C56101F01C
:10285000E3FB002840F0BE80684BA3635C6230E07D
:10286000684A136801331360012B2CD05F4B5A69FF
:1028700042F400225A615B6903F400230293029B35
:102880000F230D9303230E930DA95F4801F0C6FC9F
:102890005E485F4B03600023436083608023C36016
:1028A0004FF4807303614FF480634361202383619D
:1028B0004FF48053C36101F0AFFB78B9534BA3636E
:1028C0005C6213B0F0BD494B5A6942F080525A61C4
:1028D0005B6903F080530193019BC7E7FFF720FC7E
:1028E000ECE7484A136801331360012B37D03F4BA4
:1028F0005A6942F400325A615A6902F40032049271
:10290000049A5A6942F400225A615A6902F4002278
:102910000592059A5A6942F480225A615B6903F470
:1029200080230693069B80230D9303250E950DAC03
:1029300021464FF0904001F071FC20230D930E953D
:1029400000260F962146304801F068FC04230D93C1
:102950000E950F962146274801F060FCB1E7234B06
:102960005A6942F080525A615B6903F080530393C5
:10297000039BBCE71C4A136801331360012B13D07F
:102980001A4B5A6942F400125A615B6903F400134E
:102990000893089B4FF480730D9303230E930DA9A6
:1029A000134801F03BFC8CE7104B5A6942F000528F
:1029B0005A615B6903F000530793079BE0E70B4BF9
:1029C0005A6942F000525A615B6903F0005309935F
:1029D000099BF3E6FFF7A4FB3EE700BF00010050B0
:1029E0000004005000050050CC0B002000100240F5
:1029F0000010004800040048000C0048E0080020D7
:102A00001C040240D00B00200008004824090020CC
:102A10000800024000B589B0002303930493059396
:102A2000069307930268144B9A4202D009B05DF8EE
:102A300004FB03F5D633DA6942F00072DA61DA6931
:102A400002F000720192019A5A6942F400325A610E
:102A50005B6903F400330293029B4FF4C05303936A
:102A600002230493032306930923079303A94FF03A
:102A7000904001F0D3FBD9E70064004000B589B075
:102A80000023039304930593069307930268144B62
:102A90009A4202D009B05DF804FB03F560439A69DD
:102AA00042F480529A619A6902F480520192019A2A
:102AB0005A6942F400325A615B6903F400330293AD
:102AC000029B6023039302230493032306930523AD
:102AD000079303A94FF0904001F0A0FBDAE700BF95
:102AE0000030014002680E4B9A4200D0704700B59A
:102AF00083B003F564439A6942F400629A619B696A
:102B000003F400630193019B00221146192001F098
:102B100015FA192001F022FA03B05DF804FB00BF9A
:102B2000002C014070B588B00023039304930593F3
:102B3000069307930268234B9A4201D008B070BDF8
:102B400003F564435A6942F400225A615A6902F457
:102B500000220092009A5A6942F480225A615A690E
:102B600002F480220192019A5A6942F400125A61D9
:102B70005B6903F400130293029B4FF40053039329
:102B80000224049405940423079303AD29460E48B8
:102B900001F044FB03230393049405940026069656
:102BA000062307932946094801F038FB4FF42853C0
:102BB000039304940594069607942946044801F06B
:102BC0002DFBBBE7002C0140000800480004004832
:102BD00000100048FEE7FEE7FEE7FEE7FEE770476D
:102BE0007047704708B500F0D5F908BD08B5024830
:102BF00001F0B9FA08BD00BF2409002008B5024859
:102C000002F0E4FE08BD00BF0808002008B5024835
:102C100001F0A9FA08BD00BFE008002008B502488D
:102C200003F0E2FB08BD00BF8007002001207047D1
:102C300008B504F0D3F9162303604FF0FF3008BD48
:102C400008B54FF0FF31FFF7F3FFFEE770B50C4614
:102C50001646002506E0AFF30080214601F8010B7F
:102C600001350C46B542F6DB304670BD4FF0FF3003
:102C700070474FF400534B600020704701207047AD
:102C80000020704710B503460C4A0D490D480068F6
:102C900040B10C4800680344521A934206D8094ACE
:102CA000136010BD0748084C0460F2E704F096F981
:102CB0000C2303604FF0FF30F3E700BF00A00020BB
:102CC00000040000D40B0020F00E0020034AD2F8CC
:102CD000883043F47003C2F88830704700ED00E09C
:102CE00000B52DED048B89B0F0EE408AB0EE608A1D
:102CF000B0EE419A8DED020ACDED030A20EE000AF6
:102D000060EEA07A30EE270A10F0A0FFB4EEC90AF8
:102D1000F1EE10FA18DDC9EE007A68EEA78ACDED63
:102D2000048A28EE278A8DED058A04AB93E8030018
:102D300008AB03E903009DED060ADDED070A09B0C3
:102D4000BDEC048B5DF804FBF7EE007AE5E700B517
:102D50002DED028B87B0B0EE408A10F099FF8DED1B
:102D6000020AB0EE480A10F0CBFF8DED030A02AB69
:102D700093E8030006AB03E903009DED040ADDEDD3
:102D8000050A07B0BDEC028B5DF804FB8AB08DED3F
:102D9000030ACDED040A8DED051A30EE000A30EE7F
:102DA000600A30EE410AF0EE087A80EE277A8DED67
:102DB000067A70EEC10A9FED0A7A60EE870A80EE0D
:102DC000A77A8DED077A06AB93E803000AAB03E917
:102DD00003009DED080ADDED090A0AB0704700BF47
:102DE000D7B3DD3F8CB08DED040ACDED050A8DED36
:102DF000060ADFED117A60EEA70A70EEC07AB6EE31
:102E0000007A67EE877ACDED077AB1EE400A30EEB0
:102E1000600A20EE070A8DED080A06AB93E807006A
:102E20000CAB03E907009DED090ADDED0A0A9DEDF3
:102E30000B1A0CB0704700BFD7B3DD3F8AB08DEDE1
:102E4000040ACDED050A8DED021ACDED031A60EEF0
:102E5000017A20EEA17A77EE877ACDED067A61EEDF
:102E6000C01A60EE810A71EEA01ACDED071A06AB0A
:102E700093E803000AAB03E903009DED080ADDEDCA
:102E8000090A0AB070478AB08DED040ACDED050A33
:102E90008DED021ACDED031A60EE017A20EEA17AD3
:102EA00077EEC77ACDED067A20EE210A60EE810A30
:102EB00030EE200A8DED070A06AB93E803000AAB5B
:102EC00003E903009DED080ADDED090A0AB0704729
:102ED000DFF834D0FFF7FAFE0C480D490D4A002305
:102EE00002E0D458C4500433C4188C42F9D30A4ABF
:102EF0000A4C002301E013600432A242FBD304F029
:102F000073F8FFF751FBFEE700A00020000000204F
:102F1000CC06002070560108CC060020F00E0020E0
:102F2000FEE7000010B504460E4B1A784FF47A7392
:102F3000B3FBF2F30C4A1068B0FBF3F001F01CF89D
:102F400068B90F2C01D901200AE0002221464FF078
:102F5000FF3000F0F3FF054B1C60002000E0012073
:102F600010BD00BF100000200C0000201400002045
:102F700008B5074A136843F010031360032000F0FC
:102F8000CBFF0F20FFF7CEFFFFF7E0FB002008BDCF
:102F900000200240034A1168034B1B780B44136066
:102FA000704700BFD80B002010000020014B1868AC
:102FB000704700BFD80B002038B50446FFF7F6FF76
:102FC0000546B4F1FF3F02D0044B1B781C44FFF7C9
:102FD000EDFF401BA042FAD338BD00BF1000002017
:102FE00070477047704738B50268936803F0030371
:102FF000012B01D0002038BD0446136813F0010FE7
:1030000033D0936803F00D03012B09D0036C43F018
:1030100010030364436C43F0010343640120EAE7B7
:10302000936843F002039360036803221A60FFF77A
:10303000BDFF054623689B6813F0010F13D0FFF70F
:10304000B5FF401B0228F5D923689B6813F0010FD8
:10305000F0D0236C43F010032364636C43F001034E
:1030600063640120C7E70020C5E70020C3E7000034
:1030700038B504460268936803F00303012B0DD0B2
:1030800091681A4B19420FD0236C43F0100323644C
:10309000636C43F001036364012038BD136813F0CF
:1030A000010FEDD00020F8E7936843F0010393602F
:1030B000FFF77CFF054623681B6813F0010F13D14F
:1030C000FFF774FF431B022BF5D923681B6813F02D
:1030D000010FF0D1236C43F010032364636C43F0C1
:1030E000010363640120D8E70020D6E73F00008099
:1030F00008B5406A036C43F040030364436C43F03B
:1031000004034364FFF76EFF08BD08B5406AFFF78C
:1031100068FF08BD08B5436A1A6C12F0500F1AD147
:103120001A6C42F400721A641A68D26812F4406F82
:103130000DD15A7E5AB91A6C22F480721A641A6C34
:1031400012F4805F03D11A6C42F001021A6418462F
:10315000FFF746FF08BD9B6B1B6B9847FAE7000023
:1031600030B597B000230193002800F02F8104466A
:10317000036C13F0100F52D1036CABB10020236825
:103180009A6812F0805F03D09B6813F0005F47D00D
:10319000236C23F0120343F010032364636C43F0A9
:1031A0000103636401203BE04364C364836480F8EB
:1031B0003C30FFF7E3FA23689B6813F0805F01D08F
:1031C0000020DCE72046FFF70EFF236C13F0100F02
:1031D000D5D10028D3D1236C23F4885323F00203E4
:1031E00043F0020323642268936823F04053936002
:1031F0002268936843F080539360754B1B68754A4F
:10320000A2FB03239B0C03EB83035B00019302E00F
:10321000019B013B0193019B002BF9D1AFE70020FB
:10322000236C13F0100F40F0C880002840F0C580D8
:103230002368996811F0040140F0BF80226C22F4E9
:10324000817242F002022264B3F1A04F14D0624AAC
:1032500093420FD0614DB3F1A04F0FD05E4A93421D
:1032600067D05F4A934268D05E4A934269D0002299
:10327000029205E05C4DEEE75B4DECE7564A0292A8
:103280009A6802F00302012A5FD0029B23B19A6878
:1032900002F00302012A5DD0AB6823F44033626878
:1032A0001343AB60627E5303656B012D01D04FF475
:1032B00080510B43E1680B43A1680B4394F8201045
:1032C00001294CD0A26A012A0AD02168444DA942A2
:1032D00058D005F58075A94254D0E16A11430B43DB
:1032E0002268916811F00C0F0CD1D16821F4804153
:1032F00021F00201D160217E94F83020520042EA90
:10330000813213432168CD68384A2A401A43CA6083
:103310002369012B48D02268136B23F00F0313633A
:1033200000236364236C23F0030343F0010323644D
:103330004AE04FF0A0420292A2E702F580720292A8
:103340009EE7A2F5807202929AE71B6813F0010FC4
:10335000A8D19AE71B6813F0010FA3D19CE732B9FB
:10336000626A013A43EA424242F48033AAE7226C9D
:1033700022F0220242F020022264626C42F001023A
:1033800062649FE7B2F5307F08D0B2F5807F08D045
:10339000B2F5E07FA1D14FF480729EE74FF4E07266
:1033A0009BE74FF4307298E721680B6B23F00F0313
:1033B000E269013A13430B63B2E7236C23F0120373
:1033C00043F010032364012017B030BD0120FBE758
:1033D0000C00002083DE1B4300010050000700505A
:1033E00000040050000500500003005007C0F0FF2B
:1033F00003689B6813F0040F40F0AD8010B50446DD
:1034000090F83C30012B00F0A880012380F83C307C
:10341000FFF72EFE002840F09A80236C23F470639F
:1034200023F0010343F4807323642368B3F1A04FB6
:1034300033D04B4A934230D04A4A926812F01F0F61
:1034400030D1226C22F480122264DA6812F0007FFC
:1034500005D0226C22F4405242F480522264226C45
:1034600012F4805F3ED0626C22F006026264002299
:1034700084F83C201C221A602368B3F1A04F34D09A
:10348000374A934231D0374A926812F01F0F31D138
:103490009A6842F004029A605CE0334A926812F043
:1034A0001F0FCED0B3F1A04FCBD0304A9342C8D03B
:1034B000226C42F480122264294A93420CD02B4A97
:1034C000D268C2F34062002AC9D0226C22F4405272
:1034D00042F480522264C2E74FF0A042D268C2F3A5
:1034E0004062F0E700226264C1E71F4A926812F06E
:1034F0001F0FCDD0B3F1A04F09D0194A934206D087
:10350000184A926802F01F02052A06D1C0E7164A3F
:10351000926802F01F02052ABAD0B3F1A04F09D079
:103520000F4A934206D00F4A926802F01F02092AFE
:1035300006D1ADE70C4A926802F01F02092AA7D013
:10354000B3F1A04FA4D0094A934203D1A0E70023CE
:1035500084F83C3010BD022070470220FAE700BF1B
:10356000000100500007005000030050000400500C
:103570002DE9F04104460E464569082D10D0036838
:10358000B3F1A04F35D04E4A93422FD04D4A9168A7
:1035900011F01F0F38D1DB6813F0010F2BD10C2570
:1035A0002368B3F1A04F3ED0454A93423BD0454AF1
:1035B000926812F01F0F3BD1DF68FFF7F7FC8046DF
:1035C00023681A682A4249D1B6F1FF3FF8D0002E8D
:1035D0003DD123681B682B42F2D1236C43F00403D6
:1035E0002364002384F83C30032064E002F5007279
:1035F000CDE7354ACBE7236C43F020032364002357
:1036000084F83C30012056E0936813F4404F01D118
:103610000C25C5E7236C43F020032364002384F8C2
:103620003C30012047E0284A926812F01F0FC3D0B7
:10363000B3F1A04FC0D0254A9342BDD0204A934257
:1036400002D0224BDF68B8E74FF0A043FAE7FFF75C
:10365000ADFCA0EB0800B042B2D9BAE7226C42F44C
:1036600000722264DA6812F4406F1FD117F4005F11
:103670001CD11A6812F0080F18D09A6812F0040FC3
:103680000CD1226C22F480722264226C12F4805FCE
:103690000CD1226C42F00102226407E0226C42F05D
:1036A00020022264626C42F00102626417F4804FCF
:1036B00003D11D600020BDE8F0810020FBE700BFC2
:1036C00000010050000700500003005000040050AB
:1036D000F8B5164603689A6812F0040F40F0A88007
:1036E00004460D4690F83C20012A00F0A3800122F8
:1036F00080F83C20B3F1A04F0AD04F4A934207D044
:103700004E4B986800F01F00B0FA80F0400906E0C8
:103710004B4B986800F01F00B0FA80F0400928B9C0
:10372000002384F83C3001273846F8BD2046FFF7D7
:103730009FFC0746002877D1236C23F4706323F0A5
:10374000010343F4807323642368B3F1A04F43D093
:10375000394A934240D0394A926812F01F0F40D143
:10376000226C22F480122264DB6813F0007F05D003
:10377000236C23F4405343F480532364236C13F4E9
:10378000805F4ED0636C23F006036364002384F8EB
:103790003C30A36B2B4A9A62A36B2B4ADA62A36B71
:1037A0002A4A1A6323681C221A602268536843F06D
:1037B000100353602268D36843F00103D36021688B
:1037C00033462A464031A06B00F04CFC22689368D7
:1037D00043F004039360A7E7194A926812F01F0FA1
:1037E000BED0B3F1A04FBBD0194A9342B8D0226CDF
:1037F00042F480122264104A93420CD0144BDB68CE
:10380000C3F34063002BB9D0236C23F4405343F43B
:1038100080532364B2E74FF0A043DB68C3F34063F7
:10382000F0E700236364B1E7002384F83C307BE7D2
:10383000022779E7022777E70001005000070050D0
:1038400000030050153100080B310008F13000086A
:10385000000400500368186C7047000030B496B044
:103860000022019290F83C20012A00F0BB8103461F
:10387000012280F83C200068826812F0040F40F0BA
:10388000A6814A68042A35D8046B02EB4202520032
:103890004FF01F0C0CFA02FC24EA0C0C0C6894404C
:1038A0004CEA040404631868826812F00C0F6BD1B0
:1038B0000A68092A4FD9846902EB42021E3A4FF086
:1038C000070C0CFA02FC24EA0C048D6805FA02F2DB
:1038D0002243826148691C68E268C2F3C102520057
:1038E00090400A69013A032A00F29780DFE802F06B
:1038F00042747F8A092A10D8446B02EB42025200BC
:103900001E3A4FF01F0C0CFA02FC24EA0C040D685E
:1039100005FA02F222434263C5E70E2A0DD8846BF2
:1039200002EB420252003C3A1F25954024EA05046E
:103930000D6895402C438463B5E7C46B02EB4202EB
:1039400052005A3A1F25954024EA05040D68954017
:103950002C43C463A7E7446902EB42024FF0070C13
:103960000CFA02FC24EA0C048D6805FA02F22243E8
:103970004261AFE7256E9C4A2A400D6840EA8565A2
:103980002A4342F0004222661868826802F003026D
:10399000012A72D0CA68012A75D0D0F8B02001245B
:1039A0000D68AC4022EA0402C0F8B0201A68B2F1F7
:1039B000A04F00F091808D48824200F08B808C4CAB
:1039C0000968102900F08A80112900F09B801229D3
:1039D00000F09D800020FFE0656E834A2A400D685C
:1039E00040EA85652A4342F000426266CCE7A56E54
:1039F0007D4A2A400D6840EA85652A4342F000422C
:103A0000A266C1E7E26E784D15400A6840EA82621C
:103A1000154345F00045E566B6E7226E02F0F84230
:103A20000868B2EB806F03D1226E22F0004222665A
:103A30001A68506E00F0F8400C68B0EB846F03D148
:103A4000506E20F0004050661A68906E00F0F8400A
:103A50000C68B0EB846F03D1906E20F0004090664C
:103A60001A68D06E00F0F8400C68B0EB846F8BD110
:103A7000D06E20F00040D06686E7026812F0010F99
:103A800088D00020A8E0D0F8B0200D680124AC4018
:103A90002243C0F8B0200A68092A0DD91D68A86918
:103AA00002EB42021B3A0724944020EA04008C688F
:103AB00094402043A86179E71D686869013202EBF0
:103AC00042020724944020EA04008C68944020437A
:103AD00068616BE7474C73E7464C71E7A06810F4E8
:103AE000000F7FF471AFB2F1A04F16D03F48824271
:103AF00029D0414882422AD0404882422BD000201F
:103B000002900CE0A06810F0807FECD05FE7A06826
:103B100010F4800FE7D000205EE0344802909068F7
:103B200000F0030001281AD0029820B1856805F042
:103B30000305012D1DD0102920D0112938D01229BC
:103B40003FD0002048E04FF0A0400290E7E700F5AA
:103B500080700290E3E7A0F580700290DFE71068C4
:103B600010F0010FE0D01A6C42F020021A6401201C
:103B700032E0006810F0010FF5D1DCE7B2F1A04FA0
:103B8000DBD1A26842F40002A2601D4A12681D49FE
:103B9000A1FB0212920C02EB82025200019202E09F
:103BA000019A013A0192019A002AF9D1002013E00A
:103BB000B2F1A04FC3D1A26842F08072A26000208F
:103BC0000AE0A26842F48002A260002004E01A6CBD
:103BD00042F020021A640120002283F83C2016B033
:103BE00030BC70470220FAE700F0FF83000100506C
:103BF0000007005000030050000400500005005072
:103C00000C00002083DE1B4370B495B003460268AD
:103C1000B2F1A04F0BD04E4882424BD04D48824269
:103C20004CD04D4882424DD00020009001E04848E1
:103C300000900098002800F0878093F83CC0BCF109
:103C4000010F00F08380012483F83C40946814F055
:103C5000040F6ED1846814F0040F6AD1B2F1A04F42
:103C600036D03B4CA24231D03C4A0C68002C3DD0AF
:103C7000946824F4604493F830504E6846EA453C1A
:103C800044EA0C0494601D68AC6804F00304012C41
:103C900020D0846804F00304012C21D0906820F423
:103CA000716020F00F000C68896821430843906020
:103CB000002043E04FF0A0400090BAE700F580708C
:103CC0000090B6E7A0F580700090B2E7244ACCE7F8
:103CD000234ACAE72C6814F0010FDAD000202DE047
:103CE000006810F0010FD9D0002027E0916821F47E
:103CF000604191601C68A16801F0030101290CD0AA
:103D0000816801F0030101290DD0916821F47161EE
:103D100021F00F019160002010E0216811F0010FE7
:103D2000EED000200AE0016811F0010FEDD0002074
:103D300004E01A6C42F020021A640120002283F889
:103D40003C2015B070BC70470120FAE70220F8E76C
:103D50000001005000040050000500500007005012
:103D600000030050002800F0A18038B5044690F808
:103D70002030D3B12268136843F001031360FFF7CA
:103D800015F9054623685A6812F0010F10D1FFF7A4
:103D90000DF9401B0A28F5D9636A43F400336362C6
:103DA000052384F82030012038BDFEF733FEE1E71B
:103DB0001A6822F002021A60FFF7F8F80546236835
:103DC0005A6812F0020F0DD0FFF7F0F8401B0A28D6
:103DD000F5D9636A43F400336362052384F8203025
:103DE0000120E1E7227E012A3DD01A6822F08002FC
:103DF0001A60637E012B3BD02268136823F04003D6
:103E00001360A37E012B39D02268136823F02003AE
:103E10001360E37E012B37D02268136843F0100350
:103E20001360237F012B35D02268136823F0080329
:103E30001360637F012B33D02268136823F00403DF
:103E40001360A368E2681343226913436269134352
:103E50006268013A21681343CB610020606201234C
:103E600084F82030A0E71A6842F080021A60C0E7A8
:103E70002268136843F040031360C2E722681368A6
:103E800043F020031360C4E72268136823F0100393
:103E90001360C6E72268136843F008031360C8E79D
:103EA0002268136843F004031360CAE701207047D7
:103EB000002808DB0901C9B200F1604000F561404B
:103EC00080F80013704700F00F000901C9B2014BE0
:103ED0001954704714ED00E000B500F00700C0F180
:103EE000070CBCF1040F28BF4FF0040C031D062B78
:103EF0000FD9C31E4FF0FF3E0EFA0CF021EA00016D
:103F000099400EFA03FE22EA0E0241EA02005DF831
:103F100004FB0023EEE70000074AD36823F4E063C4
:103F20001B041B0C000200F4E060034343F0BF637A
:103F300043F40033D360704700ED00E010B5044651
:103F4000054BD868C0F30220FFF7C6FF01462046A4
:103F5000FFF7AEFF10BD00BF00ED00E0002807DB5B
:103F600000F01F02400901239340024A42F820302A
:103F7000704700BF00E100E00138B0F1807F0BD254
:103F80004FF0E0235861054AF02182F82310002009
:103F9000986107221A6170470120704700ED00E028
:103FA00030B40124056CAC40C56B6C600468636080
:103FB0004368102B05D0036899600368DA6030BC51
:103FC000704703689A600368D960F8E702680C4B91
:103FD0009A420AD80B4B13440B4AA2FB03231B093A
:103FE0009B000364094BC3637047094B1344064AA3
:103FF000A2FB03231B099B000364064BC3637047AA
:1040000007040240F8FFFDBFCDCCCCCC000002403D
:10401000F8FBFDBF0004024010B310B504460223B4
:1040200080F8213001680A686FF30D1243688068D8
:104030000343E06803432069034360690343A069C5
:104040000343E069034313430B602046FFF7BEFFC1
:104050000020A063012384F8213084F8200010BDE3
:104060000120704738B5044690F82000012831D06F
:10407000012084F8200094F82100012804D00023B6
:1040800084F82030022038BD022084F8210000206E
:10409000A0632568286820F0010028602046FFF70B
:1040A0007FFFE36A5BB12268136843F00E0313607D
:1040B0002268136843F0010313600020E3E72268DD
:1040C000136843F00A0313602268136823F00403A3
:1040D0001360EDE70220D6E7034690F82120022A7C
:1040E00006D004228263002280F82020012070473D
:1040F00001680A6822F00E020A6001680A6822F06C
:1041000001020A60026CC06B012101FA02F24260F6
:1041100083F82110002083F82000704708B590F83C
:104120002130022B03D004238363012008BD0268E1
:10413000136823F00E0313600268136823F0010371
:104140001360036CC16B012202FA03F34B6080F829
:104150002120002380F82030436B13B198470020C2
:10416000E4E70020E2E738B5C36B1A680468256805
:10417000016C04238B40134213D015F0040F10D0B0
:10418000236813F0200F03D1236823F00403236076
:10419000016CC26B04238B405360C36A03B1984720
:1041A00038BD02238B4013421AD015F0020F17D0EE
:1041B000236813F0200F06D1236823F00A0323603D
:1041C000012380F82130016CC26B02238B405360C5
:1041D000002380F82030836A002BE1D09847DFE786
:1041E00008238B401342DBD015F0080FD8D023688A
:1041F00023F00E032360026CC16B012303FA02F269
:104200004A60836380F82130002380F82030036BFC
:10421000002BC5D09847C3E7806B7047F0B583B0DB
:10422000002362E085685E000324B44025EA0405AB
:10423000CC68B4402C438460456825EA0C054C6882
:10424000C4F300149C402C4344605FE0DD08083553
:1042500050F8254003F0070C4FEA8C0C4FF00F0E7E
:104260000EFA0CFE24EA0E0E0C6904FA0CF444EA71
:104270000E0440F8254060E0042400E0002404FA25
:104280000EF42C430CF1020C524D45F82C40524CCC
:10429000A568D44325EA02064F6817F4801F01D0B1
:1042A00042EA05064C4DAE60ED6804EA05064F682B
:1042B00017F4001F01D042EA0506474DEE606D6815
:1042C00004EA05064F6817F4003F01D042EA0506EC
:1042D000414D6E602D682C404E6816F4803F01D031
:1042E00042EA05043C4A146001330A6832FA03F4D6
:1042F0006ED04FF0010C0CFA03FC1CEA0202F3D062
:104300004C6804F00304013C012C8BD94C6804F088
:104310000304032C0CD0C4685D004FF0030C0CFAAE
:1043200005FC24EA0C0C8C68AC4044EA0C04C46024
:104330004C6804F00304022C88D004684FEA430E52
:104340004FF0030C0CFA0EFC24EA0C0C4C6804F041
:10435000030404FA0EF444EA0C0404604C6814F4F8
:10436000403FC1D01D4CA56945F00105A561A46978
:1043700004F001040194019C4FEA930C0CF1020536
:10438000144C54F8255003F0030E4FEA8E0E0F2400
:1043900004FA0EF425EA0405B0F1904F3FF46EAF35
:1043A0000F4CA0420ED004F58064A0420CD004F55E
:1043B0008064A0420AD004F58064A0423FF45CAF60
:1043C00005245CE701245AE7022458E7032456E752
:1043D00003B0F0BD000001400004014000100240A5
:1043E000000400480AB18161704781627047000093
:1043F000002800F0FF8270B582B00446036813F015
:10440000010F3BD0B44B5B6803F00C03042B1ED0B0
:10441000B14B5B6803F00C03082B13D06368B3F552
:10442000803F68D0002B40F0928003F1804303F579
:1044300004331A6822F480321A601A6822F4802247
:104440001A605DE0A44B5B6813F4803FE6D04FF444
:10445000003393FAA3F3A04B19684FF4003393FA97
:10446000A3F3B3FA83F303F01F03012202FA03F369
:104470000B4203D06368002B00F0BE82236813F068
:10448000020F00F0C480944B5B6813F00C0F00F037
:104490009C80914B5B6803F00C03082B00F08F802D
:1044A0002369002B00F0F080012292FAA2F3B3FA04
:1044B00083F303F1845303F584139B001A60FEF722
:1044C00075FD0546022393FAA3F3834B1968022373
:1044D00093FAA3F3B3FA83F303F01F03012202FA62
:1044E00003F30B4240F0C280FEF760FD401B022840
:1044F000E8D9032089E2784A136843F480331360D3
:10450000754AD36A23F00F03A1680B43D362636833
:10451000002B36D0FEF74AFD05464FF4003393FAE0
:10452000A3F36D4B19684FF4003393FAA3F3B3FA76
:1045300083F303F01F03012202FA03F30B429DD120
:10454000FEF734FD401B6428E7D903205DE2B3F594
:10455000A02F09D0604B1A6822F480321A601A68C2
:1045600022F480221A60CBE703F18043A3F53C33A9
:104570001A6842F480221A601A6842F480321A6083
:10458000BEE7FEF713FD05464FF4003393FAA3F39D
:10459000514B19684FF4003393FAA3F3B3FA83F342
:1045A00003F01F03012202FA03F30B423FF466AF4C
:1045B000FEF7FCFC401B6428E6D9032025E2464BAD
:1045C0005B6813F4803F7FF46BAF022393FAA3F38D
:1045D000414B1968022393FAA3F3B3FA83F303F070
:1045E0001F03012202FA03F30B4203D02369934213
:1045F00040F004823848036823F0F8036169F82228
:1046000092FAA2F2B2FA82F291400B43036023685D
:1046100013F0080F00F08C80A369002B60D00121FB
:1046200091FAA1F2B2FA82F22C4B13449B0019606A
:10463000FEF7BCFC0546022393FAA3F293FAA3F219
:1046400093FAA3F2244A516A93FAA3F3B3FA83F3D9
:1046500003F01F03012202FA03F30B4268D1FEF7B5
:10466000A5FC401B0228E6D90320CEE11A480368C6
:1046700023F0F8036169F82292FAA2F2B2FA82F208
:1046800091400B430360C2E7012393FAA3F3B3FA0B
:1046900083F303F1845303F584139B0000221A6013
:1046A000FEF784FC0546022393FAA3F30A4B19682C
:1046B000022393FAA3F3B3FA83F303F01F03012257
:1046C00002FA03F30B42A2D0FEF770FC401B022853
:1046D000E9D9032099E100BF001002402081901029
:1046E000012292FAA2F2B2FA82F2B74B13449B0073
:1046F00000221A60FEF75AFC0546022393FAA3F241
:1047000093FAA3F293FAA3F2B04A516A93FAA3F38D
:10471000B3FA83F303F01F03012202FA03F30B42FF
:1047200006D0FEF743FC401B0228E6D903206CE1CB
:10473000236813F0040F00F0A980A44BDB6913F089
:10474000805F20D1A14BDA6942F08052DA61DB69E7
:1047500003F080530193019B01259D4B1B6813F4CB
:10476000807F12D0E368012B23D073BB03F1804319
:1047700003F504331A6A22F001021A621A6A22F05F
:1047800004021A621AE00025E7E7914A136843F42D
:1047900080731360FEF70AFC06468D4B1B6813F40A
:1047A000807FDFD1FEF702FC801B6428F5D903204F
:1047B0002BE1864A136A43F001031362E368002B7E
:1047C0003CD0FEF7F3FB06462EE0052B09D07F4BCD
:1047D0001A6A22F001021A621A6A22F004021A62AC
:1047E000ECE77A4B1A6A42F004021A621A6A42F043
:1047F00001021A62E2E7022393FAA3F3734B596AA8
:10480000022393FAA3F3B3FA83F303F01F03012205
:1048100002FA03F3194238D1FEF7C8FB801B41F2BC
:104820008833984200F2EC80022393FAA3F293FAC1
:10483000A3F3002BDFD0654B196AE1E7FEF7B6FB67
:10484000064618E0022393FAA3F3604B596A022349
:1048500093FAA3F3B3FA83F303F01F03012202FADE
:1048600003F3194211D0FEF7A1FB801B41F28833FC
:10487000984200F2C780022393FAA3F293FAA3F3BB
:10488000002BDFD0514B196AE1E7B5BBE369002B80
:1048900000F0BA804D4A526802F00C02082A00F07B
:1048A0009980022B2FD04FF0807393FAA3F3B3FAC1
:1048B00083F303F1845303F584139B0000221A60F1
:1048C000FEF774FB04464FF0007393FAA3F33F4BDB
:1048D00019684FF0007393FAA3F3B3FA83F303F06C
:1048E0001F03012202FA03F319426BD0FEF75EFBAD
:1048F000001B0228E7D9032087E0344AD36923F05C
:104900008053D361C2E74FF0807393FAA3F3B3FAF5
:1049100083F303F1845303F584139B0000221A6090
:10492000FEF744FB05464FF0007393FAA3F3274BC1
:1049300019684FF0007393FAA3F3B3FA83F303F00B
:104940001F03012202FA03F3194206D0FEF72EFBE1
:10495000401B0228E7D9032057E01C494B6823F489
:104960007413626A206A024313434B604FF08073F2
:1049700093FAA3F3B3FA83F303F1845303F5841397
:104980009B0001221A60FEF711FB04464FF00073F2
:1049900093FAA3F30D4B19684FF0007393FAA3F346
:1049A000B3FA83F303F01F03012202FA03F319425F
:1049B00006D1FEF7FBFA001B0228E7D9032024E00A
:1049C000002022E0002020E0208190100010024012
:1049D00000700040012B1AD0104B5B6803F480314B
:1049E000226A914215D103F47013626A934212D184
:1049F00000200AE001207047012006E0012004E0C9
:104A0000032002E0032000E0002002B070BD01207E
:104A1000FBE70120F9E70120F7E700BF00100240A3
:104A2000164B5B6803F00C02082A01D0144870474B
:104A300003F470114FF4701292FAA2F2B2FA82F2F9
:104A400021FA02F20F49885C0C4AD26A02F00F0286
:104A50000F2191FAA1F1B1FA81F1CA400A498A5CA9
:104A600013F4803F05D0064BB3FBF2F303FB00F0D9
:104A70007047064B03FB00F0704700BF0010024078
:104A800000127A00A44E0108944E010800093D006E
:104A9000002800F0BE8070B50D460446614B1B68CF
:104AA00003F007038B420BD25E4A136823F007031F
:104AB0000B431360136803F007038B4240F0AB8095
:104AC000236813F0020F06D0574A536823F0F0030F
:104AD000A1680B435360236813F0010F5AD0636839
:104AE000012B2DD0022B40D0022292FAA2F24E4A84
:104AF0001068022292FAA2F2B2FA82F202F01F02C7
:104B0000012101FA02F2104200F0878046494A680A
:104B100022F0030213434B60FEF748FA0646424B6D
:104B20005B6803F00C036268B3EB820F32D0FEF7D0
:104B30003DFA801B41F288339842F0D9032067E0A8
:104B40004FF4003292FAA2F2374A10684FF4003262
:104B500092FAA2F2B2FA82F202F01F02012101FAE5
:104B600002F20242D2D1012052E04FF0007292FADA
:104B7000A2F22D4A10684FF0007292FAA2F2B2FA35
:104B800082F202F01F02012101FA02F21042BDD1AD
:104B900001203DE0234B1B6803F00703AB420AD919
:104BA000204A136823F007032B431360136803F0B4
:104BB0000703AB4233D1236813F0040F06D01A4A1F
:104BC000536823F4E063E1680B435360236813F0F8
:104BD000080F07D0144A536823F46053216943EA4D
:104BE000C1035360FFF71CFF0F4B5B6803F0F0033A
:104BF000F02292FAA2F2B2FA82F2D3400B4AD35CCC
:104C0000D8400B4B18600B4B1868FEF78BF900204F
:104C100070BD012070470120FAE70120F8E701206C
:104C2000F6E700BF0020024000100240844E010859
:104C30000C00002014000020F0B583B00446036887
:104C400013F4803F48D0914BDB6913F0805F40F054
:104C5000D5808E4BDA6942F08052DA61DB6903F06D
:104C600080530193019B0125894B1B6813F4807FBE
:104C700000F0C680854B1B6A13F4407322D0626833
:104C800002F440729A421DD08048016A21F44076B5
:104C90004FF4803393FAA3F2B2FA82F27D4F3A4492
:104CA00092004FF0010CC2F800C093FAA3F3B3FADC
:104CB00083F33B449B0000221A60066211F0010F4F
:104CC00040F0B380714A136A23F4407361680B4368
:104CD0001362002D40F0D080236813F0010F06D03E
:104CE0006A4A136B23F00303A1680B431363236821
:104CF00013F0020F06D0654A136B23F44033E168CA
:104D00000B431363236813F0040F06D05F4A136B41
:104D100023F4402321690B431363236813F0200F0E
:104D200006D05A4A136B23F01003E1690B43136357
:104D3000236813F4003F06D0544A536823F48003D9
:104D4000A16B0B435360236813F0400F06D04F4A0A
:104D5000136B23F02003216A0B431363236813F0C2
:104D6000080F06D0494A136B23F4401361690B43C3
:104D70001363236813F0100F06D0444A136B23F417
:104D80004003A1690B431363236813F4007F06D02B
:104D90003E4A536823F40003E16A0B4353602368DF
:104DA00013F0800F06D0394AD36A23F4F873616A8E
:104DB0000B43D362236813F4807F06D0334AD36A4F
:104DC00023F47853A16A0B43D362236813F4805F02
:104DD00006D02E4A136B23F48073216B0B431363AD
:104DE000236813F4005F4ED0284A136B23F400733A
:104DF000616B0B431363002003B0F0BD002533E764
:104E0000234A136843F480731360FEF7CFF8064615
:104E10001F4B1B6813F4807F7FF42CAFFEF7C6F89E
:104E2000801B6428F4D90320E6E7FEF7BFF80646A6
:104E300018E0022393FAA3F3144B596A022393FA5E
:104E4000A3F3B3FA83F303F01F03012202FA03F37F
:104E50000B427FF437AFFEF7A9F8801B41F288338D
:104E600098420ED8022393FAA3F293FAA3F3002BED
:104E7000DFD0064B196AE1E7D36923F08053D36191
:104E80002AE70320B8E70020B6E700BF0010024081
:104E900000700040008190102DE9F04782B0054677
:104EA000884617461E46FEF781F80A9B1B1A03EB3D
:104EB0000609FEF77BF88246284B1B68C3F3CB3309
:104EC00009FB03F301932B689C6838EA04040CBFC8
:104ED00001230023BB423DD0B6F1FF3FF3D0FEF7E4
:104EE00065F8A0EB0A00484507D2019A02B14A468C
:104EF000019B013B01939146E5E72A68536823F043
:104F0000E00353606B68B3F5827F0BD0AB6AB3F5F7
:104F1000005F14D0012385F85D30002385F85C30F4
:104F2000032018E0AB68B3F5004F02D0B3F5806FF3
:104F3000ECD12A68136823F040031360E6E72A687F
:104F4000136823F4005313602A68136843F4005372
:104F50001360DFE7002002B0BDE8F0870C000020FE
:104F60002DE9F04782B006460C4615461F46002341
:104F70008DF80330FEF71AF80A9B1B1A03EB07089B
:104F8000FEF714F88146D6F800A0304B1B6803EBFF
:104F90008303C3EBC3031B0D08FB03F3019302E080
:104FA000B7F1FF3F12D133689B6803EA040CAC45AC
:104FB00047D0B4F5C06FF3D1002DF1D19AF80C3081
:104FC000DBB28DF803309DF80330E9E7FDF7EEFF23
:104FD000A0EB0900404507D2019A02B14246019B6D
:104FE000013B01939046DEE73268536823F0E0030B
:104FF00053607368B3F5827F0BD0B36AB3F5005F7B
:1050000014D0012386F85D30002386F85C3003203D
:1050100018E0B368B3F5004F02D0B3F5806FECD160
:105020003268136823F040031360E6E732681368C0
:1050300023F4005313603268136843F40053136081
:10504000DFE7002002B0BDE8F08700BF0C000020C1
:1050500070B582B004460D46164600920B460022FB
:105060004FF4C051FFF77CFFB0B900962B460022E9
:1050700080212046FFF710FFA8B900962B4600229A
:105080004FF4C0612046FFF76BFF50B1236E43F031
:1050900020032366032004E0236E43F020032366ED
:1050A000032002B070BD236E43F02003236603206B
:1050B000F7E770B582B004460D4616464368B3F56F
:1050C000827F0DD000962B46002280212046FFF7DC
:1050D000E3FE90B96368B3F5827F14D002B070BD6F
:1050E0008368B3F5004F02D0B3F5806FEAD1226830
:1050F000136823F040031360E4E7236E43F02003BA
:1051000023660320EAE7A368B3F5004F02D0B3F5A6
:10511000806FE3D100962B4600224FF4C0612046F9
:10512000FFF71EFF0028D9D0236E43F0200323662B
:105130000320D3E700286FD010B50446436A33B983
:105140004368B3F5827F05D00023C36102E00023EA
:10515000036143610023A36294F85D30002B52D0B9
:10516000022384F85D302268136823F04003136043
:10517000E368B3F5E06F4CD90022B3F5706F04D04B
:10518000B3F5E06F01D00023A362636803F4827378
:10519000A16801F404410B43216901F002010B43B2
:1051A000616901F001010B43A16901F400710B4336
:1051B000E16901F038010B43216A01F080010B43E2
:1051C000A16A01F4005120680B430360638B03F074
:1051D0000403616A01F010010B43616B01F00801E7
:1051E0000B43E16801F470610B43216813434B608A
:1051F0002268D36923F40063D36100202066012371
:1052000084F85D3010BD84F85C302046FDF736FC34
:10521000A6E74FF48052B0E7012070472DE9F8432C
:105220001F46089D90F85C30012B00F06A8104460F
:1052300088469146012380F85C30FDF7B7FE0646AC
:1052400094F85D30D9B26268012B0AD0B2F5827F42
:1052500040F04581A368002B40F04781042940F0CD
:105260004681B8F1000F00F04481B9F1000F00F061
:105270004281002F00F0418194F85D30042B02D070
:10528000052384F85D3000232366C4F84090A4F819
:105290004670A4F84470C4F83880E787A787E364B1
:1052A0002365E368B3F5E06F01D8012F23D92268A5
:1052B000536823F48053536023681A6812F0400F38
:1052C00003D11A6842F040021A60E368B3F5E06F58
:1052D0005CD963680BB1012F0BD1A26B23681288D4
:1052E000DA60A36B0233A363E38F9BB2013B9BB2F3
:1052F000E387012730E02268536843F4805353600A
:10530000DAE7A26B1288DA60A36B0233A363E38F40
:105310009BB2013B9BB2E387002723689A6812F097
:10532000010F11D0B4F8462092B26AB1DA68236C4A
:105330001A80236C02332364B4F846309BB2013BDD
:105340009BB2A4F846300127FDF730FE831BAB4229
:1053500002D3B5F1FF3F14D1E38F9BB22BB9B4F860
:1053600046309BB2002B00F0AB8023689A6812F0A5
:10537000020FD2D0E28F92B2002ACED0002FCCD032
:10538000BFE7012384F85D300320A9E063680BB117
:10539000012F0FD1E38F9BB2012B0DD9A26B236894
:1053A0001288DA60A36B0233A363E38F9BB2023BE4
:1053B0009BB2E387012749E0A26B236812781A7336
:1053C000A36B0133A363E38F9BB2013B9BB2E387E3
:1053D000F0E7E28F92B2012A0CD9A26B1288DA6050
:1053E000A36B0233A363E38F9BB2023B9BB2E387C1
:1053F00000273DE0A26B12781A73A36B0133A363FD
:10540000E38F9BB2013B9BB2E387002730E0226829
:10541000536843F48053536001270DE0226C1B7BDB
:105420001370236C01332364B4F846309BB2013B04
:105430009BB2A4F846300127FDF7B8FD801BA842B7
:1054400002D3B5F1FF3F36D1002D34D0E38F9BB2AC
:1054500023B9B4F846309BB2002B31D023689A6848
:1054600012F0020F04D0E28F92B20AB1002FB0D135
:1054700023689A6812F0010FDED0B4F8462092B289
:10548000002AD9D0B4F8462092B2012AC6D9DA68E7
:10549000236C1A80236C02332364B4F846309BB229
:1054A000023B9BB2A4F84630B4F846309BB2012BC5
:1054B000ADD90127C0E7012384F85D3003200FE058
:1054C000324629462046FFF7C3FD10B1202323664C
:1054D0000120236E9BB9012384F85D3000E0022097
:1054E000002384F85C30BDE8F8830220F8E702204E
:1054F000F6E70120F4E70120F2E70120F0E70120C0
:10550000EEE70220EFE72DE9F04383B0044690F880
:105510005D00012840F0C280884691461D46C6B213
:105520006368B3F5827F3DD094F85C30012B00F0C6
:10553000BD80012384F85C30FDF738FD0746B8F1E3
:10554000000F00F0AC80B9F1000F00F0A880042338
:1055500084F85D3000232366C4F84080A4F84490AA
:10556000A4F84690A363A387E387E3642365E36815
:10557000B3F5E06F24D92268536823F48053536055
:10558000A368B3F5004F21D023681A6812F0400FCA
:1055900003D11A6842F040021A60E368B3F5E06F85
:1055A00028D94DE0A368002BBED1042384F85D30D8
:1055B000009513460A462046FFF730FE064671E086
:1055C0002268536843F480535360D9E72268136814
:1055D00023F0400313602268136823F480431360B0
:1055E000D2E7FDF7E3FCC01BA84202D3B5F1FF3FB1
:1055F00018D1BDB1B4F846309BB2002B3FD0236820
:105600009A6812F0010FECD0226C1B7B1370236C94
:1056100001332364B4F846309BB2013B9BB2A4F83B
:105620004630E7E7012384F85D30032637E0FDF7D5
:10563000BDFCC01BA84202D3B5F1FF3F1AD1CDB1CA
:10564000B4F846309BB2D3B123689A6812F0010FC8
:10565000EDD0DA68236C1A80236C02332364B4F82B
:1056600046C01FFA8CFC0CF1FF3C1FFA8CFCA4F81E
:1056700046C0E5E7012384F85D3003260FE03A4693
:1056800029462046FFF715FD08B120232366236E27
:105690002BB9012384F85D30002600E002260023A8
:1056A00084F85C30304603B0BDE8F0830226F9E7A9
:1056B00030B4036A23F001030362026A4468836919
:1056C00023F4803323F073030D681D4322F002029C
:1056D0008B6813431C4A90420FD002F5006290423F
:1056E0000BD002F54062904207D002F580629042F2
:1056F00003D002F58062904205D123F00803CA6806
:105700001A4322F00403104A90420FD002F50062BF
:1057100090420BD002F54062904207D002F58062C1
:10572000904203D002F58062904205D124F4407487
:105730004A6922438C691443446085614A68426324
:10574000036230BC704700BF002C014030B4036AD4
:1057500023F480730362036A4468C26922F48032CE
:1057600022F073020D68154323F400738A6843EA3C
:105770000223184A904203D002F50062904206D1FB
:1057800023F40063CA6843EA022323F48063114AC6
:1057900090420FD002F5006290420BD002F54062B9
:1057A000904207D002F58062904203D002F58062F9
:1057B000904207D124F440524C6942EA04128C69A9
:1057C00042EA04144460C5614A68C263036230BCA3
:1057D000704700BF002C014030B4036A23F48053AB
:1057E0000362036A4468C26922F0807222F4E642CE
:1057F0000D6842EA052223F400538D6843EA05331D
:105800000F4DA8420FD005F50065A8420BD005F555
:105810004065A84207D005F58065A84203D005F58C
:105820008065A84204D124F480444D6944EA85147B
:105830004460C2614A680264036230BC704700BFC2
:10584000002C014030B4036A23F480330362036AFE
:105850004468426D22F4803222F070020D681543D4
:1058600023F400338A6843EA02430F4A90420FD080
:1058700002F5006290420BD002F54062904207D0E0
:1058800002F58062904203D002F58062904204D11A
:1058900024F480344A6944EA0224446045654A6835
:1058A0008265036230BC7047002C014030B4036A4B
:1058B00023F480130362036A4468426D22F080720D
:1058C00022F4E0420D6842EA052223F400138D68B9
:1058D00043EA05530F4DA8420FD005F50065A842D5
:1058E0000BD005F54065A84207D005F58065A842B4
:1058F00003D005F58065A84204D124F480244D69C5
:1059000044EA8524446042654A68C265036230BC4B
:10591000704700BF002C01400368196A41F2111260
:10592000114208D1196A40F24442114203D11A6867
:1059300022F001021A60012380F83D3000207047F8
:1059400090F83D30012B32D1022380F83D300268BF
:10595000D36843F00103D3600368184A934218D018
:10596000B3F1804F15D0A2F59432934211D002F5D5
:10597000806293420DD002F59632934209D002F52F
:105980004062934205D01A6842F001021A6000207A
:10599000704799680A4A0A40062A0AD0B2F5803F41
:1059A00009D01A6842F001021A60002070470120F5
:1059B0007047002070470020704700BF002C014056
:1059C00007000100704770477047704710B50446E4
:1059D00003681A6912F0020F11D0DA6812F0020F90
:1059E0000DD06FF002021A610123037703689B69EF
:1059F00013F0030F79D0FFF7E6FF00232377236826
:105A00001A6912F0040F12D0DA6812F0040F0ED0E7
:105A10006FF004021A610223237723689B6913F451
:105A2000407F68D02046FFF7CEFF0023237723680E
:105A30001A6912F0080F12D0DA6812F0080F0ED0AF
:105A40006FF008021A61042323772368DB6913F0DF
:105A5000030F57D02046FFF7B6FF002323772368B4
:105A60001A6912F0100F12D0DA6812F0100F0ED06F
:105A70006FF010021A61082323772368DB6913F49F
:105A8000407F46D02046FFF79EFF00232377236800
:105A90001A6912F0010F03D0DA6812F0010F3FD13A
:105AA00023681A6912F0800F03D0DA6812F0800FB1
:105AB0003DD123681A6912F4807F03D0DA6812F0AE
:105AC000800F3BD123681A6912F0400F03D0DA68C7
:105AD00012F0400F39D123681A6912F0200F03D059
:105AE000DA6812F0200F37D110BDFFF76BFF2046A8
:105AF000FFF76AFF81E72046FFF764FF2046FFF7C4
:105B000063FF92E72046FFF75DFF2046FFF75CFF4B
